:020000041000EA
:1000000000B5324B212058609868022188439860DF
:10001000D860186158612E4B002199600221596106
:100020000121F02299502B49196001219960352056
:1000300000F044F80222904214D00621196600F024
:1000400034F8196E01211966002018661A6600F04E
:100050002CF8196E196E196E052000F02FF8012189
:100060000842F9D1002199601B49196000215960AB
:100070001A491B48016001219960EB211966A021F2
:10008000196600F012F800219960164914480160C1
:100090000121996001BC002800D000471248134993
:1000A000086003C880F30888084703B5996A0420EC
:1000B0000142FBD001200142F8D103BD02B5186610
:1000C0001866FFF7F2FF186E186E02BD00000240BE
:1000D000000000180000070000035F00212200005C
:1000E000F4000018222000A00001001008ED00E03C
:1000F00000000000000000000000000074B24E7A12
:1001000000200420F7010010C3010010C5010010F9
:10011000C1010010C1010010C1010010C101001097
:10012000C1010010C1010010C1010010C701001081
:10013000C1010010C1010010C9010010CB01001065
:10014000CD010010CD010010CD010010CD01001037
:10015000CD010010CD010010CD010010CD01001027
:10016000CD010010CD010010CD010010CD01001017
:10017000CD010010CD010010CD010010CD01001007
:10018000CD010010CD010010CD010010CD010010F7
:10019000CD010010CD010010CD010010CD010010E7
:1001A000CD010010CD010010CD010010CD010010D7
:1001B000CD010010CD010010CD010010CD010010C7
:1001C00000BE00BE00BE00BE00BE00BEEFF3058054
:1001D000103800BEF2EB8871E8B610100CB71010A2
:1001E0003402001090A31AE700201F49086006C8D7
:1001F00081F3088810471D48006800282FD10DA4FE
:100200000ECC002902D000F012F8F9E71849194A7B
:10021000002000E001C19142FCD1174988471749ED
:1002200088471749884700BEFDE701C901C29A42C5
:10023000FBD370470CB71010C0000020EC48002022
:1002400038FF1010000004200000042038FF1010B8
:10025000001004200010042000000000704709482E
:1002600070F080FF0047000008ED00E0000000D0C3
:1002700020490020B01702208DF906102903001034
:10028000C1FA06105756000006005250ABB3605337
:10029000B0050A1006005250861C0302C0050A1061
:1002A000060052505422A29DCC050A10050052505F
:1002B000DE65F46838FF1010F8B5C04610B5064C7E
:1002C0002378002B07D1054B002B02D0044800E017
:1002D00000BF0123237010BD484C00200000000027
:1002E000D0200910044B10B5002B03D0034904485B
:1002F00000E000BF10BDC046000000004C4C0020D4
:10030000D020091010B577F00FFB044C206802F0E4
:10031000B5FB206802F0BCFD10BDC046F0500020C7
:1003200010B590F0B3FD0000FA2070B5800073F0B6
:1003300071FB040002F05AFEC72300259B00E55024
:10034000E3185D609D60EA239B00E01800F06EFCFE
:10035000F3239B00E554E3185D601D619B60DB6047
:10036000F8239B00E550104E0433E5501420346010
:1003700073F050FB050002F079FB0C4C30682560EF
:1003800001F0E4FE0A4877F0A7FA23681B7C002BF3
:1003900004D1C04623681B7C002BFAD0306800F0E3
:1003A00067FE002070BDC046EC500020F0500020D9
:1003B000050300107047C0462C23C05C7047C04640
:1003C0007047C0462C23C05C7047C0467047C0468B
:1003D0002C23C05C7047C0467047C0462C23C05CCD
:1003E0007047C0467047C0462C23C05C7047C0466B
:1003F0000A68F8210368012089005854507904499B
:1004000058549179034A9954002101329950704708
:10041000E1030000E3030000036801200A680349C8
:1004200058549168F922920099507047E3030000F4
:1004300010B5074C200089F0A9F920003C3C89F058
:1004400077F9200089F0A2F9200089F071F910BD38
:100450000C25012010B50400302173F0EBFA2000C8
:1004600010BDC04610B50400302173F0E3FA20003F
:1004700010BDC04610B50400302173F0DBFA200037
:1004800010BDC04610B50400302173F0D3FA20002F
:1004900010BDC04610B50400302173F0CBFA200027
:1004A00010BDC046044B10B51868002803D09968E9
:1004B000091A73F0BFFA10BD7C240120F0B5C646BE
:1004C000194B00B59846C0CBBE421AD07468B568C7
:1004D000AC420AD0A368002B1ED0210020000322CA
:1004E00010349847A542F5D17568002D18D0F368EF
:1004F0002800591B103673F09DFAB742E6D14346E7
:100500001F68002F05D0434699683800C91B73F057
:1005100091FA80BCB846F0BD1034A542DAD1E3E7C9
:100520001036B742D2D1EAE750240120012A03D085
:10053000022A03D0002070470160FBE70B680360CC
:10054000F8E7C046012A03D0022A03D000207047F2
:100550000160FBE70B680360F8E7C046F0B557465B
:10056000DE464E46454681461823E0B54B448BB0E7
:100570000360079301234360FE2300259B0503616D
:100580008560C5604561856110200F00511A48449F
:10059000C910049206908EF043FF4B465B6804003E
:1005A0009A46984214D9012800D1E3E080239B05A4
:1005B000984200D3E8E08600300073F02BFA320056
:1005C0000021050073F01AFA4B46A2461D605C60DC
:1005D000049BBB4257D04B461B68B8460393082385
:1005E0004B44059343461F885146380070F014FE73
:1005F0008B009B465A46039B9B58002B0FD05646B8
:100600008A461C68A588BD4233D02468002C06D0D9
:10061000A5883100280070F0FFFD8A45F3D00C203A
:1006200073F0F8F9002306000822414608C073F071
:10063000EBF901234A4600934B4608ACDB682000E7
:10064000526806998EF040FF2378002B22D14B464A
:100650001B680393039C5C442368002B00D176E065
:100660001B68336023681E604B464A46DB680133D3
:10067000D36008239C46049BE044434503D04B468B
:100680005B689A46AEE70BB0F0BCBB46B246A946E3
:10069000A046F0BD63689A46012B6FD080239B056E
:1006A0009A4571D253469C00200073F0B3F92200A2
:1006B0000021039073F0A2F94B4600229D689A60D6
:1006C000002D2BD00023B3465646BA461F0005E046
:1006D000126822601B681C60002D1CD02C003100A9
:1006E000A08870F099FD039A8B00944663441A68C1
:1006F0002D68002AECD14A46926822604A469460EE
:10070000059A1A602368002B32D06346BF00FC5064
:100710000F00002DE2D15746B2465E464B4603CB52
:10072000079B834202D0890073F084F94B465246FE
:100730005A60039A51461A60380070F06DFD8B00C4
:100740009B46039C5C442368002B00D088E74B4603
:100750004A469B6896603360002B06D098885168A3
:1007600070F05AFD039B8900CE50059B23607BE708
:100770000F00B1E74B469D61079D25E74B460022E0
:100780009A61079B039397E78EF08EFDF0B54E4676
:10079000DE465746454681461823E0B54B448BB0AC
:1007A0000360079301234360FE2300269B0503613A
:1007B0008660C6604661866110200D00511A48446B
:1007C000C910049206908EF02BFE4B465B68040025
:1007D0009A46984214D9012800D1E5E080239B0570
:1007E000984200D3EAE08700380073F013F93A002A
:1007F0000021060073F002F94B46A2461E605C60C1
:10080000049BAB4257D04B461B68039308234B44D1
:1008100005932B8851461800984670F0FDFC8B001C
:100820009B465A46039B9B58002B10D04746884650
:100830001C68A688BE423AD02468002C06D0A68840
:100840005146300070F0E8FC8845F3D0B8460C20E3
:1008500073F0E0F80022030004C306CD06C30123B1
:100860004A4600934B4608ACDB68060052682000FD
:1008700006998EF029FE2378002B23D14B461B6866
:100880000393039C5C442368002B00D179E01B6830
:10089000336023681E604B464A46DB680133D360F1
:1008A000049BAB4207D04B465B689A46B1E7049B7A
:1008B0000835AB42F7D10BB0F0BCBB46B246A946F7
:1008C000A046F0BD63689A46012B71D080239B053A
:1008D0009A4573D253469C00200073F09BF8220087
:1008E0000021039073F08AF84B4600229F689A60BB
:1008F000002F2DD000239B462B005546B2465E4666
:100900009B4605E0126822601B681C60002F1CD00B
:100910003C002900A08870F07FFC039A8B0094466D
:1009200063441A683F68002AECD14A469268226004
:100930004A469460059A1A602368002B32D06346B9
:10094000B600F4500E00002FE2D15646AA465D468E
:100950004B4603CB079B834202D0890073F06AF8B1
:100960004B4652465A60039A51461A60404670F010
:1009700053FC8B009B46039C5C442368002B00D0F7
:1009800085E74B464A469B6896603360002B06D04D
:100990009888516870F040FC039B8900CE50059BFD
:1009A000236078E70E00B1E74B469E61079E23E780
:1009B0004B4600229A61079B039395E78EF074FCE7
:1009C000012270B516000B4C2378BFF35B8F1E40DD
:1009D0001A4202D0084D280070BD20008EF04CFA5B
:1009E000054D0028F7D020002E706E60AE608EF0AE
:1009F0005FFAF0E7BC4C00207825012010B5084CC8
:100A00002378BFF35B8FDB0701D5064810BD2000BC
:100A10008EF032FA0028F8D020008EF049FAF4E780
:100A2000A84C002070240120F8B5CE46474680B57A
:100A3000040020F0EDFB764A0300904214D0754A82
:100A4000904209D00020002B10D0C0BCB946B0465F
:100A5000F8BD2D79ED076AD50220F6E72879014225
:100A6000FAD10120002B64D00120EEE7012215000D
:100A7000694E3378BFF35B8F1D401A4270D0674FC9
:100A8000380020F001FB01221100337805001940E5
:100A9000BFF35B8F88461A4200D1A8E0380020F0EF
:100AA000F7FA01221100337880461940BFF35B8FBB
:100AB00089461A4200D18CE0380020F0E5FA584B04
:100AC0001A68C2235B00C250280003F0B5F9C7239F
:100AD0009B009946A144484604F0D6F9280003F04B
:100AE0001FF9484604F0E0F940462422291D04304D
:100AF00072F08AFF012211003378BFF35B8F194037
:100B000088461A4258D0474BF95C012935D0CB1E94
:100B10005A425341AA68C026D8B28023170002392E
:100B20009B00B600C9B213403740B74291D00129AB
:100B300098D8002869D1F321F22389008C469B00C4
:100B4000E3189B686444002B5FD0210003E0190088
:100B50009B68002B20D018699042F8D2DB68F8E738
:100B600030008EF089F92D4F002889D030003D707B
:100B70007D60BD608EF09CF982E7AA688023C0206A
:100B800016009B00800013400640864200D165E7B6
:100B90001800431E984158E700208C4200D154E7CA
:100BA0000B69934200D950E74B690E2B00D94CE7F3
:100BB0001D4A9B00985848E730008EF05DF90028E8
:100BC000A1D0434630003B707B60BB608EF070F973
:100BD00099E730008EF050F9002800D16CE74B46C1
:100BE00030003B707B60BB608EF062F964E73000E0
:100BF0008EF042F9002800D150E7434630003B70A8
:100C00007B60BB608EF054F948E700201DE7C046CA
:100C1000A58477E7E1E437F7BC4C00207825012074
:100C20009C7001202231000078240910002305491E
:100C30000370054B01611A685B688260C360826162
:100C4000C36170470C020C01F8020A10F0B503787A
:100C500004000D00170083B0002B1DD18B68002B02
:100C600008D0394B1A685B68009201938260C360B8
:100C700003B0F0BDC168806803000B4341D00D0094
:100C8000324B5A6AAA42F3D39B6A834201D2AA42E8
:100C9000EED001232370EBE78B68028A93420AD0DF
:100CA000428A934207D0284B1A685B6800920193EE
:100CB0008261C361DCE7A069E16903000B4314D0E2
:100CC0000E00224B5A6AB242D2D39B6A834201D2AF
:100CD000B242CDD0AB68228A93421ED0628A934240
:100CE000C6D11B4820F05CFAC2E76EF035F800234D
:100CF000184A8018594100291BDB0E00A061E161F0
:100D0000DFE76EF029F832220023801859410029CC
:100D100014DB0D00A060E160B2E73800431E98418B
:100D20000D4B0E4A9C4640421040604420F038FA79
:100D30009EE701200A4E0A494042DFE70120084DA4
:100D400007494042E6E7C046F8020A100040054065
:100D5000E1E437F700093D00A58477E728E25D5C10
:100D6000FFFFFF7F84B0F0B5454657464E46DE464E
:100D7000E0B587B013939BB29B4692461292CAB2DB
:100D80001AAD119101922B89594698466B892F789B
:100D900000935B46DB43029343468B43D14304916C
:100DA000390091435246D2436E680B430392514639
:100DB000320011A88A43814613432ED0012211002C
:100DC0006F4B1B78BFF35B8F194005911A4200D11E
:100DD000BEE06C4C302072F01DFE002342460371D1
:100DE000049B01003B400372039B33409BB2C360F2
:100DF000029B13400382644B644A0360644B42616C
:100E000043828361634B0922C3610362436283624D
:100E10002C23C254200019F0FDFB4346DB4342461D
:100E200002935B469343FA439046019ABA431343B5
:100E30005246B243F74313432ED001221100504EC5
:100E40003378BFF35B8F194003911A426ED04D4C3B
:100E5000302072F0DFFD002342460371019B010048
:100E60001340037253463B409FB25B46029AC760F1
:100E700013400382484B454A0360454B426143821D
:100E80008361444B0822C3610362436283622C2363
:100E9000C254200019F0BEFB4B46009A5B89934276
:100EA00004D14B46EA68DB689A4263D001221600FF
:100EB000334D2B78BFF35B8F1E401A4226D0314C46
:100EC000302072F0A7FD002303710372C360038218
:100ED000304B0B22C361036243628362009B0100BB
:100EE00043821D9B43611E9B83612C4B03602C231B
:100EF000C254200019F08EFB07B0F0BCBB46B246CE
:100F0000A946A046F0BC08BC04B0184728008DF0E4
:100F1000B3FF1C4C0028D3D026606660A660204832
:100F20008FF0BCFF28008DF0C3FFC9E730008DF0C3
:100F3000A3FF144C002800D18AE7039B18482360C4
:100F40006360A3608FF0AAFF30008DF0B1FF7FE7F0
:100F50000B488DF091FF0B4C002800D13AE7059B20
:100F60000F4823606360A3608FF098FF04488DF002
:100F70009FFF2FE74B462A691B699A4296D1BBE730
:100F8000A44C00205024012090210910FF7FFF7FF6
:100F9000FF7F000000FEFF467C210910A4210910FC
:100FA000BD040010F8B5F8239B00C25C0400002AC1
:100FB0002CD1274BE25C002A1AD1264B18685968BD
:100FC00003000B4307D1F8BD0122234B21495242B4
:100FD0000CC110001900214B5A6A9142F3D89B6A48
:100FE000834225D3F9239B00E05820F0D9F8EAE7A3
:100FF0000022E2546DF0B0FE0023194A80185941D6
:101000000029E1DB134B18605960D9E70022C25474
:1010100001321700134D2B78BFF35B8F1F401A422C
:1010200009D0114E114B3000E15C1FF011FEC0E7FA
:101030009142D7D1C7E728008DF01EFF0A4E002845
:10104000F0D0280037707760B7608DF031FFE9E7A6
:10105000E303000020490020FFFFFF7F0040054020
:1010600020A10700BC4C002078250120E1030000EE
:10107000F0B5DE46454657464E46E0B5A9B00600F7
:101080001790FFF7BBFC02791592FFF7B7FC0268D7
:101090009046FFF795FC1FF0F7FF0500FFF790FC67
:1010A0001FF0F6FF04001A90002077F0ABF8EA2159
:1010B0002A1D89008C461492320062441692C7227F
:1010C00092009446330063441993230004331B9326
:1010D000012306AA1D9222009B46C24610321C9292
:1010E000C4235B00EB5C002B00D0B9E024221499F0
:1010F0001FA872F089FC5C465A46B44B1B78BFF3BC
:101100005B8F1C401A4200D110E1B1481FF0BCFFB8
:10111000B04B1A68C2235B00C250280002F08CFE5C
:1011200044224C200EAB9B181A780EAB1B181B8860
:101130002F799946AB89484698464B46DB43139333
:1011400043468343D04312903800AE6890431092D8
:101150003200209903438A43CC43119113432CD08E
:101160005A469D4B1B78BFF35B8F1A4018925A4624
:101170001A4200D1E8E0302072F04CFC00234246D5
:101180000371129B34403B400372139BA4B2134083
:101190000382924B924A0360924B42614382836185
:1011A000914B0722C3610362436283622C23C460B4
:1011B0000100C2548D4819F02DFA4346DB434246E4
:1011C00012934B469343109AFC43BA431343119A2C
:1011D000F743B24313432CD05E465A467E4B1B78EE
:1011E000BFF35B8F1E401A4200D1BFE0302072F087
:1011F00011FC00230371109B129A23400372119B70
:1012000001003B409FB24B4613400382784B744A27
:101210000360744B426143828361734B0622C36156
:101220000362436283622C23C760C2546F4819F083
:10123000F1F9159BFF2B2BD153461B6829009B68A6
:1012400050469847012229001698FFF7FFFC17988F
:10125000FFF7A8FEC4235B00EB5C002B00D145E741
:101260005C465A46594B1B78BFF35B8F1C401A42B1
:1012700000D19DE056481FF0ADFE280002F0D2FBE1
:10128000199803F0F1FDC42200235200AB542DE75E
:101290005C465A46574B1B78BFF35B8F1C401A4283
:1012A00075D0554820F066FA199B9846180003F04F
:1012B000EBFD280003F094FB290000221698FFF7AD
:1012C000C5FC280002F02CFD404603F0EDFD149C07
:1012D0001D9B2200C2CAC2C3C2CAC2C3C2CAC2C301
:1012E0006B461C9AC2CAC2C3C2CAC2C31A9B179E0B
:1012F00004330ECB3000FFF735FD242221001B986C
:1013000072F082FB53461B6829009B685046984741
:10131000040001200021404276F0E6FF4046210013
:1013200003F0D2FD3000FFF73DFED9E627488DF0EF
:10133000A3FD002800D1E8E6254B24481C705C6022
:101340009C608DF0B5FDE0E623488DF095FD00280A
:1013500000D110E7254A189B28481360536093601A
:101360008FF09CFD1C488DF0A3FD04E71A488DF01A
:1013700083FD002800D139E71C4B20481E605E60C9
:101380009E608FF08BFD14488DF092FD2EE719487A
:101390008DF072FD002884D0174B19481C605C60EA
:1013A0009C601C618FF07AFD12488DF081FD78E71A
:1013B00006488DF061FD002800D15BE7044B03482F
:1013C0001C705C609C608DF073FD53E7BC4C00208A
:1013D000782501209C700120A44C00206821091070
:1013E000FF7FFF7FFF7F000000FEFF4650240120AB
:1013F00054210910B04C00207C240120BD040010B1
:10140000A5040010F0B50500C646CB680020EB60CF
:101410002B0000B54E680C0028606E60A860103389
:10142000103184C984C32F00A8611837012E0CD055
:1014300080239B059E4248D2B600300072F0EAFA43
:1014400032000021070072F0D9FAA4682F60002C46
:1014500037D00C2072F0DEFA00220300070004C32C
:10146000221D03CA03C3AF60B88869686FF0D4FE59
:101470002B002A68890008338B502668002E20D064
:10148000002398460C2072F0C5FA4246030004007F
:1014900004C3321D03CA03C33C60A08869686FF0AF
:1014A000BBFE2B6889009C4661440B68002B04D06E
:1014B0003668002E05D02700E4E70F603668002E5E
:1014C000F9D1280080BCB846F0BD8DF0EDFEC046D5
:1014D000F0B50500C646CB680020EB602B0000B5D8
:1014E0004E680C0028606E60A8601033103184C90B
:1014F00084C32F00A8611837012E0CD080239B05D0
:101500009E4248D2B600300072F084FA32000021C8
:10151000070072F073FAA4682F60002C37D00C20FB
:1015200072F078FA00230700082208C0211D72F02B
:101530006BFAB8886968AF606FF06EFE2B002A689E
:10154000890008338B502668002E20D0002398464F
:101550000C2072F05FFA43460400082208C0311DD7
:1015600072F052FAA08869683C606FF055FE2B68F3
:1015700089009C4661440B68002B04D03668002E1D
:1015800005D02700E4E70F603668002EF9D1280067
:1015900080BCB846F0BD8DF087FEC046F0B54F4622
:1015A000D64646468C680B1DC0B581460F00904656
:1015B0009A46002C1DD0166804E0A3680122002B77
:1015C00007D01C002569AE42F7D3E3680022002B48
:1015D000F7D12300002A0DD1B54218D323004A4683
:1015E0001360002313714846E0BCBA46B146A846D2
:1015F000F0BD1C00FB68A3420CD020008DF076FDEE
:10160000434605691E6823000400B542E6D2002B5C
:10161000E5D01C00A2451ED043461B689C462369AA
:101620009C45B6417642182072F0F4F9030005009B
:101630004246103303CA03C3534622002900300038
:101640008DF070FD7B694A4601337B614B461D601E
:1016500001231371C7E70126E5E7C046F0B55746F9
:101660004546DE464E468046E0B50F0018218BB059
:10167000414414000492079101220160FE2142605E
:1016800089050022016110218260C260426182618D
:10169000E21B921041440591110189180A02891830
:1016A0000A0489184942994200D2190005988DF020
:1016B000B7FE43465B6804009A46834214D2012871
:1016C00000D1EEE080239B05984200D3F4E0860031
:1016D000300072F09FF932000021050072F08EF99F
:1016E0004346A2461D605C60049B9F425DD043461A
:1016F0001B6803930823434406933B885146180014
:1017000099466FF089FD8B009B465A46039B9B5878
:10171000002B10D04E4689461C68A588AE423CD0AE
:101720002468002C06D0A588514628006FF074FD6F
:101730008945F3D0B146402072F06CF900230600D1
:1017400003603B88391D83800830FFF75BFE300063
:10175000390024302031FFF7BBFE012342460093BD
:10176000434608ACDB682000526805998DF0ACFE5A
:101770002378002B21D143461B680393039C5C44D0
:101780002368002B00D179E01B68336023681E605A
:1017900043464246DB680133D360049B3C37BB427F
:1017A00003D043465B689A46A7E740460BB0F0BCBF
:1017B000BB46B246A946A046F0BD63689A46012BD7
:1017C00074D080239B059A4576D253469C00200016
:1017D00072F020F922000021039072F00FF94346C5
:1017E00000229D689A60002D2FD0002332009B4676
:1017F0003B0056465F4692469B4605E012682260D3
:101800001B681C60002D1CD02C003100A0886FF0DC
:1018100003FD039A8B00944663441A682D68002ADE
:10182000ECD142469268226042469460069A1A6061
:101830002368002B33D06346BF00FC500F00002DFF
:10184000E2D153465F46B2461E00434603CB079B98
:10185000834202D0890072F0EDF8434652465A6046
:10186000039A51461A6048466FF0D6FC8B009B469F
:10187000039C5C442368002B00D085E74346424626
:101880009B6896603360002B06D0988851686FF093
:10189000C3FC039B8900CE50069B236078E70F00B2
:1018A000B0E700234246079D936119E743460022B3
:1018B0009A61079B039392E78DF0F6FCF0B5DE4644
:1018C00057464E464546DD49E0B50A00DC4CDD4B47
:1018D000A54403608346103210A8FEF757FFDA498B
:1018E00000250A0080AC103217A8FEF737FE10A9B9
:1018F000258081A8FFF786FD17A988A8FFF7E8FDD6
:10190000D2491EA80A007832FEF740FFD0490126CE
:101910000A0025A83032FEF721FEA6871EA990A84E
:10192000FFF770FD25A997A8FFF7D2FDC9492CA89C
:101930000A002032FEF72AFF1022002136A872F09A
:101940005DF8FE239B0506229A46379378232CA93F
:10195000E25239AF9FA8349633973595FFF752FD81
:1019600033A9A6A8FFF7B4FDBB493AA80A00503234
:10197000FEF70CFFB94941A80A001832FEF7EEFD48
:10198000B42303223AA9E252AEA8FFF73BFD41A9D6
:10199000B5A8FFF79DFDB24948A80A004032FEF7FE
:1019A000F5FEB0494FA80A001032FEF7D7FDF0232C
:1019B000042248A9E252BDA8FFF724FD4FA9C4A8FC
:1019C000FFF786FDA84956A80A004832FEF7DEFE5A
:1019D000A6495DA80A003032FEF7C0FD9623052215
:1019E0005B00E25256A9CCA8FFF70CFD5DA9D3A875
:1019F000FFF76EFD9E4964A80A001832FEF7C6FE86
:101A0000102200216EA871F0F9FF71AB6B9398461C
:101A100053466F93B42308225B00E25264A9DBA80B
:101A20006C966D95FFF7EEFC6BA9E2A8FFF750FDF1
:101A3000904972A80A001832FEF7A8FE1022002171
:101A40007CA871F0DBFF7FAB7993994653467D9379
:101A5000D22309225B00E25272A9EAA87A967B950A
:101A6000FFF7D0FC79A9F1A8FFF732FD58460CAB7F
:101A700005930FAB04930BAB03930EAB02930DAB2B
:101A800001930AAB0093210000231430F8AAFFF75A
:101A9000E5FDF8AE3C3EB56A002D06D028002D6865
:101AA0000C2171F0C7FF002DF8D1736A00219A0054
:101AB000306A71F0A3FF0023F362B3623300306A2F
:101AC0003833716A984202D0890071F0B3FFF5682B
:101AD000002D06D028002D680C2171F0ABFF002DE1
:101AE000F8D1B36800219A00706871F087FF002375
:101AF0003361F360330070681C33B168984200D1E1
:101B000018E3890071F096FFA642C3D17B9D002D9A
:101B100006D028002D680C2171F08CFF002DF8D123
:101B20007A9B00219A00799B1800079371F066FF59
:101B3000002379987A997C937B93484502D0890059
:101B400071F078FF749D002D06D028002D680C21BF
:101B500071F070FF002DF8D1739B00219A007298EC
:101B6000079371F04BFF002372987593749378ABD1
:101B70007399984202D0890071F05CFF6D9D002D31
:101B800006D028002D680C2171F054FF002DF8D1EB
:101B90006C9B00219A006B9B1800079371F02EFF3D
:101BA00000236B986C996E936D93404502D0890029
:101BB00071F040FF669D002D06D028002D680C2195
:101BC00071F038FF002DF8D1659B00219A006498D0
:101BD000079371F013FF00236498679366936AABD1
:101BE0006599984202D0890071F024FF5F9D002D15
:101BF00006D028002D680C2171F01CFF002DF8D1B3
:101C00005E9B00219A005D9B1800079371F0F6FE21
:101C100000235D9860935F9363AB5E99984202D016
:101C2000890071F007FF589D002D25D028002D68F0
:101C30000C2171F0FFFE002DF8D11DE030220910BB
:101C40001CFCFFFFE0E1091040220910502209109E
:101C5000C8220910F8220910182309106823091056
:101C600080230910C0230910D0230910182409105B
:101C70004824091060240910579B00219A005698A7
:101C8000079371F0BBFE00235698599358935CABB1
:101C90005799984202D0890071F0CCFE519D002DD9
:101CA00006D028002D680C2171F0C4FE002DF8D15B
:101CB000509B00219A004F9B1800079371F09EFEE5
:101CC00000234F985293519355AB5099984202D0AC
:101CD000890071F0AFFE4A9D002D06D028002D68C6
:101CE0000C2171F0A7FE002DF8D1499B00219A002C
:101CF0004898079371F082FE002348984B934A93CB
:101D00004EAB4999984202D0890071F093FE439DF1
:101D1000002D06D028002D680C2171F08BFE002DBF
:101D2000F8D1429B00219A00419B1800079371F063
:101D300065FE002341984493439347AB42999842F0
:101D400002D0890071F076FE3C9D002D06D028005F
:101D50002D680C2171F06EFE002DF8D13B9B002107
:101D60009A003A98079371F049FE00233A983D9300
:101D70003C9340AB3B99984202D0890071F05AFEE7
:101D8000359D002D06D028002D680C2171F052FEE3
:101D9000002DF8D1349B00219A00339B1800079343
:101DA00071F02CFE00233398349936933593B84262
:101DB00002D0890071F03EFE2E9D002D06D0280035
:101DC0002D680C2171F036FE002DF8D12D9B0021DD
:101DD0009A002C98079371F011FE00232C982F93F2
:101DE0002E9332AB2D99984202D0890071F022FED9
:101DF000279D002D06D028002D680C2171F01AFEB9
:101E0000002DF8D1269B00219A00259B18000793EE
:101E100071F0F4FD00232598289327932BAB269986
:101E2000984202D0890071F005FE209D002D06D059
:101E300028002D680C2171F0FDFD002DF8D11F9BAD
:101E400000219A001E98079371F0D8FD00231E9878
:101E50002193209324AB1F99984202D0890071F0FE
:101E6000E9FD199D002D06D028002D680C2171F088
:101E7000E1FD002DF8D1189B00219A00179B180056
:101E8000079371F0BBFD002317981A9319931DABAC
:101E90001899984202D0890071F0CCFD129D002D56
:101EA00006D028002D680C2171F0C4FD002DF8D15A
:101EB000119B00219A001098079371F09FFD002359
:101EC00010981393129316AB1199984202D089007F
:101ED00071F0B0FD00235A46594613635363936370
:101EE000D3631364536448228B5402328B5274229E
:101EF0000026CB640B654B658B65CB650B664B662B
:101F00008B66CB660B678B5202328E54052180257F
:101F100084209027753A2280013222820132228465
:101F200001326360E360A3606361E361A3616362A4
:101F3000E362A36222863C326363E363A363A1523C
:101F4000103201316364E364A364A15210320131A1
:101F50006365E365A365A152103201316366E366F0
:101F6000A366A152673A6367E367A367625383324C
:101F700023508031A3509046823A6350E253043795
:101F8000E3510837E351043FE35101320837E2538C
:101F90000437E3510837E351043FE3510132083776
:101FA000E2530437E3510837E351043FE351013270
:101FB0000837E2530437E3510837E351043FE35154
:101FC00001320837E2530437E3510837E351043F45
:101FD000E35101320837E2530437E3510837E35144
:101FE000043FE35101320837E2530437E351083725
:101FF000E351043F5A46E3517C2416555C44535147
:10200000145054504146089480AC00262700535089
:10201000099447E088235A46D4583B88228A9A423A
:1020200042D2089BA34200D188E03B88228A934297
:102030009B415B420793202071F0ECFC3B8805003C
:102040000382BB6899467B6898464B4642469E1A77
:10205000002343618361C361C14558D03A4B9E421E
:1020600000D96EE0300071F0D5FC83199A466861A2
:10207000EB61C14503D03200414671F0C5FC5346C7
:102080002200AB612900089B07988DF04BF88C2348
:102090005A46D258561C07925A46D6501037C0ABF3
:1020A0009F421ED0002EB5D180235A46D458002C12
:1020B00033D0398804E0A3680120002B07D01C002E
:1020C000228A8A42F7D8E3680020002BF7D1002843
:1020D00024D19142E2D9002CA3D11037C0AB9F424A
:1020E000E0D13D00099C103D6868002812D0EB68E3
:1020F000191A71F09FFCA542F5D15846F9239B00AF
:102100009D44F0BCBB46B246A946A046F0BD0026A1
:102110000020AAE7A542E6D1EFE7089C84235A46AF
:10212000D358A34200D17CE720008CF0DFFF398830
:10213000028ACEE7A64200D0ACE4E7E4012307938D
:1021400079E78DF0B1F8C046FCFFFF7FF0B50022C3
:102150004E464546DE465746F54BE0B51A6001321D
:102160001400F44B814698461B7889B0BFF35B8F0F
:102170001C401A4200D1EEE2EF4E30001EF056FD38
:10218000EE4D2B78BFF35B8FDB0700D436E2EC4CCF
:1021900020001EF079FB2B78BFF35B8FDB0700D4A8
:1021A00055E220001EF0B2FB2B78BFF35B8FDB07FC
:1021B00000D474E220001EF03FFB2B78BFF35B8F4E
:1021C000DB0700D493E2200000211EF03BFC04ACAE
:1021D00002AD002800D0B2E2C720800071F01AFCE6
:1021E000824600F003FFC720800071F013FC070057
:1021F00000F0FCFE0122434611001B78BFF35B8F09
:1022000019408B461A4200D1EAE1514630001EF0D7
:1022100039FF0122434611001B78BFF35B8F194041
:102220008B461A4200D1CDE1390030001EF02EFF5E
:102230000122434617001B78BFF35B8F1F401A42F1
:1022400000D1B2E130001EF0C5FE504600F068FF3C
:102250000122434617001B78BFF35B8F1F401A42D1
:1022600000D195E1F2270122736FBF004F4439007E
:10227000029220002A006B60FFF790F9022302937C
:10228000F36F2A0039006B602000FFF787F9042301
:1022900002938033F3582A0039006B602000FFF767
:1022A0007DF9082302938433F3582A0039006B60C8
:1022B0002000FFF773F9102302938433F3582A00A8
:1022C00039006B602000FFF769F9402302935C330B
:1022D000F3582A0039006B602000FFF75FF92023D4
:1022E00002938433F3582A0039006B602000FFF713
:1022F00055F9802302932C33F3582A0039006B6080
:102300002000FFF74BF97FF09FFE082071F082FB61
:102310000023C7259B464360AD008A4B4D44010016
:102320000360280002F082FE082071F073FB5B4618
:102330004360854B01000360280002F077FE88208F
:1023400071F068FB07008822002171F057FB7F4B7A
:1023500039003B60280002F041FE0C2071F05AFB6E
:102360005B46436083607A4B01000360280002F003
:1023700035FE202071F04EFB07002022002171F075
:102380003DFB744B39003B60280002F027FE102013
:1023900071F040FB07001022002171F02FFB6E4B03
:1023A00039003B60280002F019FE282071F032FB52
:1023B00007002822002171F021FB684B39003B60A7
:1023C000280002F00BFE342071F024FB07003422B9
:1023D000002171F013FB624B39003B60614B280018
:1023E0003B6302F0FBFD902071F014FB070090228C
:1023F000002171F003FB3800FFF760FA3900280074
:1024000002F0ECFD282071F005FB070028220021D6
:1024100071F0F4FA544B39003B60280002F0DEFD05
:102420001C2071F0F7FA07001C22002171F0E6FA77
:102430004E4B39003B60280002F0D0FD542071F073
:10244000E9FA07005422002171F0D8FA484B39000C
:102450003B60280002F0C2FD802071F0DBFA07002B
:102460008022002171F0CAFA3800424B20223B60E2
:102470000021083071F0C2FA2423012238003A7595
:102480003D49FA5438303F3271F0BEFA3900280025
:1024900002F0A4FD382071F0BDFA070038220021B7
:1024A00071F0ACFA354B39003B605B463B733B0047
:1024B0000C337B61BB61280002F090FD282071F095
:1024C000A9FA07002822002171F098FA2C4B390054
:1024D0003B60280002F082FD782071F09BFA070033
:1024E0007822002171F08AFA264B39003B602800DF
:1024F00002F074FD582071F08DFA07005822002177
:1025000071F07CFA204B28003B60390002F066FD38
:10251000C62352465B00D35848465D78FEF784FADE
:10252000112800D904E2194B80001B589F46C04671
:102530009C700120BC4C002078250120B44C002068
:102540009024012094D00910B0E4091070CD091036
:102550006CCE091014D00910E8CE091018D2091059
:1025600030E40910333353400CE30910A8E009109C
:10257000ACE30910A8DE0910B021091038D3091006
:1025800028DF091018E0091094E20910042109104D
:1025900040468CF071FC002800D163E6404637705D
:1025A0007760B7608CF084FC5CE640468CF064FC9D
:1025B000002800D146E6404637707760B7608CF05F
:1025C00077FC3FE640468CF057FC002800D12BE614
:1025D0005B46404633707360B3608CF069FC23E661
:1025E00040468CF049FC002800D10EE65B46404690
:1025F00033707360B3608CF05BFC06E628008CF0EF
:102600003BFCD24C002800D1C2E5200086F092FEAF
:102610002000203086F08EFE2000403086F0C6FF7D
:1026200020007C3086F0C2FF2000B83087F030F9FF
:10263000C7488EF033FC28008CF03AFC20001EF0D6
:1026400023F92B78BFF35B8FDB0700D5A9E52800C2
:102650008CF012FC002800D1A3E5200086F06AFE71
:102660002000203086F066FE2000403086F09EFF7D
:1026700020007C3086F09AFF2000B83087F008F9FF
:10268000B3488EF00BFC28008CF012FC20001EF0EA
:102690003DF92B78BFF35B8FDB0700D58AE5280077
:1026A0008CF0EAFB002800D184E5200086F042FE91
:1026B0002000203086F03EFE2000403086F076FF7D
:1026C00020007C3086F072FF2000B83087F0E0F800
:1026D0009F488EF0E3FB28008CF0EAFB20001EF000
:1026E000ABF82B78BFF35B8FDB0700D56BE52800D9
:1026F0008CF0C2FB002800D165E5200086F01AFEB0
:102700002000203086F016FE2000403086F04EFF7C
:1027100020007C3086F04AFF2000B83087F0B8F8FF
:102720008B488EF0BBFB28008CF0C2FB2000002100
:102730001EF088F904AC02AD002800D14CE523005E
:102740002A00844801A96BF06DF8002811D1814955
:1027500081486DF0B9F940468CF08EFB7F4E002821
:1027600000D10AE5404634707460B4608CF0A0FB80
:1027700003E5049A029901986BF018F82CE5784D5E
:102780002B78BFF35B8FDB0700D4FFE0FF21754898
:1027900017F0B0FDFF2501221100734E3378BFF30F
:1027A0005B8F194088461A4200D18DE06F4F4B462F
:1027B00004936F4B2200E3606E4B0C21A360380042
:1027C00018F09AF8A368002B03D003222100200000
:1027D0009847012211003378BFF35B8F1940884678
:1027E0001A4261D04B460493634B2200E360634B73
:1027F0000121A360380018F07FF8A368002B03D0F4
:102800000322210020009847092D00D180E009B063
:10281000F0BCBB46B246A946A046F0BD0927504BC6
:102820009B461B78BFF35B8FDB075FD539004D48B4
:1028300017F060FDC62352465B00D3585D78AF4267
:10284000A9D001225F70434615001B78BFF35B8F50
:102850001D401A4260D0012130001EF0F9F93D0000
:1028600099E70227DBE70B27D9E70727D7E70527F3
:10287000D5E70D27D3E70427D1E70827CFE70627B9
:10288000CDE70E27CBE70327C9E70027C7E70127D6
:10289000C5E70A27C3E70C27C1E739486EF062FC99
:1028A000002103000800984730008CF0E5FA00286A
:1028B00098D0434633483B607B60BB608EF0EEFAB5
:1028C00030008CF0F5FA8DE730008CF0D5FA274F08
:1028D000002800D16BE743462A483B607B60BB6021
:1028E0008EF0DCFA30008CF0E3FA60E758468CF0AA
:1028F000C3FA00289AD058468CF0DAFA3D00290035
:10290000184817F0F7FCFF2D00D144E72F0091E79E
:102910001D486CF033F97AE740468CF0ADFA002898
:1029200099D0404635707560B5608CF0C1FA92E779
:102930000B4B9B461B78BFF35B8FDB07DFD45846FE
:102940008CF09AFA0028DAD02F00D4E790240120E6
:1029500031040010C0D40100D020091078250120D6
:10296000A84C002070240120A44C002050240120F9
:10297000F10300102D05001019040010450500108A
:1029800055420000BD040010AC0D000028008CF082
:1029900073FA002800D1F9E628008CF089FAF5E6F0
:1029A00030B51C4A93B0136801331360012B08D172
:1029B0000122194B52421A6000225A609A60DA6072
:1029C0001A61164A136801331360012B09D0144AA7
:1029D000144B116852680091019219605A6013B04B
:1029E00030BD4022104902A8891871F00DF800236B
:1029F0000E4C402023606360A36071F00BF805006B
:102A00004022403502A92060A56070F0FDFF65609E
:102A1000DDE7C046984C0020804C0020944C0020FC
:102A2000F8020A1020490020B0210910A4700120EA
:102A3000044B10B51868002803D09968091A70F083
:102A4000F9FF10BD7C24012010B5074C200086F052
:102A50009DFE20003C3C86F06BFE200086F096FE3A
:102A6000200086F065FE10BD0C25012000230360C8
:102A700043608360C36003747047C046F8B557462F
:102A80004546DE464E46E0B5E14D07002B78BFF3E4
:102A90005B8FDB0700D413E1DE4C20001DF0F4FE59
:102AA0002B78BFF35B8FDB0700D432E120001DF0F1
:102AB0002DFF2B78BFF35B8FDB0700D451E12000A3
:102AC0001DF0BAFED44C2378BFF35B8FDB0700D434
:102AD00067E1D24B18683860002800D170E10368C4
:102AE0005B689847386803685B6B9847CC4B041E5B
:102AF000984600D1E1E0012215001B78BFF35B8FFF
:102B00001D401A4200D1ABE1C64B99462100484610
:102B10001EF0D6FD702070F07DFF040070220021B1
:102B200070F06CFFC04B00252360012323749A468C
:102B300023002033A36120233E1DE55421003000F3
:102B400002F04CFAE420C00070F064FFE4220400BC
:102B5000D200002170F052FFB44B200023600A2302
:102B60003030A36086F092F8E6235B00E554230042
:102B7000CD33FF335D609D602000EC23E1305B00CE
:102B8000E550FF3063F0BCFCA94B2100E554E3188D
:102B90005D601D619B60DB60300002F01FFA202049
:102BA00070F038FF5246A34BC560057445618561DE
:102BB000A14D03602B7804001A4093465246BFF3A0
:102BC0005B8F1A4200D112E19C4B9A4652469C4BB5
:102BD0002100D35C3000237202F000FA102070F064
:102BE00019FF04001022002170F008FF954B21000E
:102BF0002360300002F0F2F91C2070F00BFF04009B
:102C00001C22002170F0FAFE8F4B2100236030005F
:102C100002F0E4F9302070F0FDFE040030220021C3
:102C200070F0ECFE894B21002360300002F0D6F9F1
:102C3000A82070F0EFFE0400A822002170F0DEFE54
:102C4000834B21002360F623824A2831A26023733C
:102C5000A2612377A2620B71A26310310B71A2648F
:102C600010310B71A26510310B71A26610310B711E
:102C7000A2670B7588216250210088310B71982161
:102C800062502200983213712100300002F0A6F940
:102C90000122434614001B78BFF35B8F1C401A428D
:102CA00000D192E048461EF08DFC01233B74F0BC3D
:102CB000BB46B246A946A046F8BD5A4B994629E7FD
:102CC00028008CF0D9F8534C002800D1E5E620000C
:102CD00086F030FB2000203086F02CFB20004030B6
:102CE00086F064FC20007C3086F060FC2000B83068
:102CF00086F0CEFD58488EF0D1F828008CF0D8F838
:102D000020001DF0C1FD2B78BFF35B8FDB0700D5E2
:102D1000CCE628008CF0B0F8002800D1C6E62000F0
:102D200086F008FB2000203086F004FB20004030B5
:102D300086F03CFC20007C3086F038FC2000B83067
:102D400086F0A6FD44488EF0A9F828008CF0B0F873
:102D500020001DF0DBFD2B78BFF35B8FDB0700D578
:102D6000ADE628008CF088F8002800D1A7E6200006
:102D700086F0E0FA2000203086F0DCFA20004030B7
:102D800086F014FC20007C3086F010FC2000B83067
:102D900086F07EFD30488EF081F828008CF088F8AF
:102DA0008DE620008CF068F8002800D191E6200024
:102DB0008CF07EF8194B18683860002800D08EE639
:102DC000174B9846174B9946A4E640468CF054F8AA
:102DD000002800D166E74B4620481C605C609C6080
:102DE0001C618EF05BF840468CF062F85AE72800D0
:102DF0008CF042F8114B9A46002800D1E6E65A467C
:102E000028001A705A609A608CF052F8DEE6C046CC
:102E1000B44C002090240120A84C002070240120F4
:102E2000B04C00207C240120B8D909108CDC09109A
:102E30004C05000054DD0910BC4C00207825012011
:102E4000190A0000ECCD091094CF0910A8DF091071
:102E50001CDE0910FFFF0100492A0010312A001072
:102E600040468CF009F8084B9946002800D14DE601
:102E70001D605D609D601D6104488EF00FF8404646
:102E80008CF016F842E6C0467C240120312A00105E
:102E900070B50500041D200001F0F6FF200002F0CF
:102EA00003F828680028F6D00368DB689847F2E743
:102EB00030B5174A91B0136801331360012B08D164
:102EC0000122144B52421A6000225A609A60DA6062
:102ED0001A61114A136801331360012B01D011B03C
:102EE00030BD40220D49684670F08EFD00230C4C29
:102EF000402023606360A36070F08CFD05004022D9
:102F0000403569462060A56070F07EFD6560E6E7AB
:102F1000984C0020804C0020944C0020B4240910D0
:102F2000A47001207047C046807970477047C04642
:102F3000C079704710B50400082170F07BFD2000B7
:102F400010BDC04610B50400082170F073FD2000CC
:102F500010BDC046F0B5C646194B00B59846C0CB6B
:102F6000BE421AD07468B568AC420AD0A368002B80
:102F70001ED021002000032210349847A542F5D12D
:102F80007568002D18D0F3682800591B103670F0B2
:102F900051FDB742E6D143461F68002F05D0434696
:102FA00099683800C91B70F045FD80BCB846F0BD7B
:102FB0001034A542DAD1E3E71036B742D2D1EAE7BE
:102FC0005024012010B56BF0C7FE002905D0FA226D
:102FD000002392006EF05EF910BDFA2189006EF0B8
:102FE0001BF9F9E710B56BF0B7FE10BDF8B5002579
:102FF0000026040028270580856086700671404BF6
:1030000040484149414AE06021616261A361E36156
:1030100023626362E6552063E36323646364A3640D
:1030200020004C23E5626163A2630021E552102277
:1030300025656565A565E56525666566A566E5663C
:10304000703070F0DBFC8023E5500433E55004332E
:10305000E5500433E5500433E5500433E5500433C0
:10306000E5500433E5500433E5500433E5500433B0
:10307000E5500433E5500433E5500433E5500433A0
:10308000E55023000122BA339E70C4231700204D5F
:103090005B00E6542B78BFF35B8F1F401A4215D0BC
:1030A0000122C62317001B4E5B00E6502B78BFF3AE
:1030B0005B8F1F401A4216D0CA23174A5B00E250AA
:1030C00000228533FF332000E254F8BD28008BF046
:1030D000D3FE0028E4D0114B28001E705F609F6073
:1030E0008BF0E6FEDCE728008BF0C6FE0028E3D07C
:1030F000503E280037707760B7608BF0D9FEDBE771
:1031000000FEFF460000FF7FFF7FFF7FFF7F000084
:10311000BC4C0020C8250120A026012078250120D4
:10312000F0B501224E464546DE465746E0B516004C
:10313000EE4D04002B7883B0BFF35B8F1E401A4224
:1031400001D100F05BFC082070F064FC0123002535
:103150009A464360BF330560E050082070F05AFC87
:10316000022399464360C2330560E050082070F0A6
:1031700051FC042398464360C4330560E0500820A6
:1031800070F048FC0827CC230560E0504760082019
:1031900070F040FC53464360CF330560E050082098
:1031A00070F038FC4B464360D2330560E050082095
:1031B00070F030FC43464360D4330560E050082093
:1031C00070F028FCDC230560E0504760082070F0B8
:1031D00021FC10234360D0330560E050082070F0DC
:1031E00019FC20234360C4330560E050082070F0D0
:1031F00011FC4026E82305604660E050082070F08E
:1032000009FC802343606C330560E050082070F0B7
:1032100001FC80235B009B464360103B0560E0504F
:10322000082070F0F7FB80239B0043600D3BFF3BC1
:103230000560E050082070F0EDFB8023DB00436068
:10324000F8230560E050082070F0E4FB80231B01A8
:103250004360FC230560E050082070F0DBFB802316
:103260005B0143605B460560E050082070F0D2FBD4
:1032700080239B01436082235B000560E0500820AF
:1032800070F0C8FB8023DB01436084235B00056092
:10329000E050082070F0BEFB80231B0243609B4679
:1032A00086235B000560E050082070F0B3FB8023AC
:1032B0005B03436088235B000560E050082070F0EA
:1032C000A9FB80239B0343608A235B000560E050D9
:1032D000082070F09FFB8023DB0343608C235B009E
:1032E0000560E050082070F095FB80231B044360CC
:1032F0008E235B000560E050082070F08BFB80237C
:103300005B04436090235B000560E050082070F090
:1033100081FB80239B04436092235B000560E050A7
:10332000082070F077FB8023DB04436094235B006C
:103330000560E050082070F06DFB80231B054360A2
:1033400096235B000560E050082070F063FB80234B
:103350005B05436098235B000560E050082070F037
:1033600059FB80239B0543609A235B000560E05076
:10337000082070F04FFB8023DB0543609C235B003B
:103380000560E050082070F045FB80231B06436079
:103390009E235B000560E050082070F03BFB5B461D
:1033A0004360A0235B000560E050082070F032FB12
:1033B000182343602D33FF330560E050082070F080
:1033C00029FB192343603033FF330560E0500820A8
:1033D00070F020FB1A2343603333FF330560E05065
:1033E000082070F017FB534643605033FF330560ED
:1033F000E050082070F00EFB4B4643605333FF3320
:103400000560E050082070F005FB434643605533EB
:10341000FF330560E050082070F0FCFAAE235B003B
:103420000560E0504760082070F0F4FA3B234360E9
:103430002633FF330560E050082070F0EBFA3C23A0
:1034400043602933FF330560E050082070F0E2FA52
:103450003D2343602C33FF330560E050082070F0BB
:10346000D9FA3E2343602F33FF330560E050082034
:1034700070F0D0FA3F2343603233FF330560E050F1
:103480000820984670F0C6FABA235B0005604660D3
:10349000E050082070F0BEFA412343603833FF3318
:1034A0000560E050082070F0B5FA422343603B33DA
:1034B000FF330560E050082070F0ACFA472343600A
:1034C0003A33FF330560E05084460F208146084DB3
:1034D0000022A944484600230121064E0190A85C21
:1034E000472814D8800030588746C046BC4C00207E
:1034F00071620120F4240910BE204000205881464A
:1035000008004F4698403F6838434F4638600133C3
:1035100014321E2BE3D122007733FF33E358993264
:10352000191DFF3261C961C261C961C2043161C93B
:1035300061C261C961C2043161C961C261C961C24C
:10354000043161C961C261C961C2043161C961C22A
:1035500061C961C284229200A218043161C961C2AA
:1035600061C961C28A229200A218043161C961C294
:1035700061C961C290229200A218043161C961C27E
:1035800061C961C296229200A218043161C961C268
:1035900061C961C29C22591C9200A218FF3161C905
:1035A00061C261C961C2A2229200A218043161C93C
:1035B00061C261C961C2A8229200A218043161C926
:1035C00061C261C961C2AE229200A218043161C910
:1035D00061C261C961C2B4229200A218043161C9FA
:1035E00061C261C961C2BA229200A218043161C9E4
:1035F00061C261C961C2C02292009446A933644489
:10360000FF3307CB07C407CB07C403B0F0BCBB46EE
:10361000B246A946A046F0BD0800674698403F68FC
:10362000013338436746143238601E2B00D056E70A
:1036300071E7BC20400061E7BA2040005EE74046E9
:103640005CE7B620400059E7B420400056E7B220BE
:10365000400053E7B020400050E7AE2040004DE767
:10366000AC2040004AE7AA20400047E7A8204000DD
:1036700044E79E20400041E79C2040003EE79A201E
:1036800040003BE79820400038E79620400035E7AF
:103690009420400032E7922040002FE79020400025
:1036A0002CE78E20400029E78C20400026E78A2066
:1036B000400023E78820400020E7862040001DE7E7
:1036C000842040001AE7D548C0278058E759814632
:1036D0000198BA4680587F6800904846074208D053
:1036E0000800574698403F683843834650465F4637
:1036F0000760C4204F46205882464068384208D0B0
:103700000800574698403F683843834650465F4616
:103710000760C8204F46205882464068384208D08B
:103720000800574698403F683843834650465F46F6
:103730000760CC204F46205882464068384208D067
:103740000800574698403F683843834650465F46D6
:103750000760D0202058009F82464068384208D039
:103760000800574698403F683843834650465F46B6
:103770000760D4202058009F82464068384208D015
:103780000800574698403F683843834650465F4696
:103790000760D8202058009F82464068384208D0F1
:1037A0000800574698403F683843834650465F4676
:1037B0000760DC202058009F82464068384208D0CD
:1037C0000800574698403F683843834650465F4656
:1037D0000760E0202058009F82464068384208D0A9
:1037E0000800574698403F683843834650465F4636
:1037F0000760E4202058009F82464068384208D085
:103800000800574698403F683843834650465F4615
:103810000760E8202058009F82464068384208D060
:103820000800574698403F683843834650465F46F5
:103830000760EC202058009F82464068384208D03C
:103840000800574698403F683843834650465F46D5
:103850000760F0202058009F82464068384208D018
:103860000800574698403F683843834650465F46B5
:103870000760F4202058009F82464068384208D0F4
:103880000800574698403F683843834650465F4695
:103890000760F8202058009F82464068384208D0D0
:1038A0000800574698403F683843834650465F4675
:1038B0000760FC202058009F82464068384208D0AC
:1038C0000800574698403F683843834650465F4655
:1038D0000760802040002058009F824640683842A0
:1038E00008D00800574698403F6838438346504602
:1038F0005F460760822040002058009F8246406853
:10390000384206D00800574698403F68384357462B
:103910003860A82040002058834647684846074240
:1039200006D008005F4698403F6838435F463860DD
:10393000AA2040002058834647684846074206D0E0
:1039400008005F4698403F6838435F463860AC20C7
:1039500040002058834647684846074206D0080082
:103960005F4698403F6838435F463860AE2040006D
:103970002058824647684846074200D1C7E50800FC
:10398000574698403F6801333843574614323860F1
:103990001E2B00D0A3E5BEE5A6204000AEE5A42086
:1039A0004000ABE5A2204000A8E5A0204000A5E52E
:1039B000FC20A3E5F820A1E5822040009EE58020C0
:1039C00040009BE5F42099E5F02097E5EC2095E593
:1039D000E82093E5E42091E5E0208FE5DC208DE50B
:1039E000D8208BE5D42089E5D02087E5CC2085E55B
:1039F000C82083E5C42081E5C0207FE528008BF046
:103A00003BFA002801D1FFF79EFB054B28001E70F2
:103A10005E609E608BF04CFAFFF795FB78620120A8
:103A200078250120C02310B50400C058002802D01A
:103A300008216FF0FFFFC423E058002802D00821BE
:103A40006FF0F8FFC823E058002802D008216FF07B
:103A5000F1FFCC23E058002802D008216FF0EAFFE4
:103A6000D023E058002802D008216FF0E3FFD423D0
:103A7000E058002802D008216FF0DCFFD823E0587E
:103A8000002802D008216FF0D5FFDC23E058002881
:103A900002D008216FF0CEFFE023E058002802D0CA
:103AA00008216FF0C7FFE423E058002802D0082166
:103AB0006FF0C0FFE823E058002802D008216FF023
:103AC000B9FFEC23E058002802D008216FF0B2FFC4
:103AD000F023E058002802D008216FF0ABFFF42358
:103AE000E058002802D008216FF0A4FFF823E05826
:103AF000002802D008216FF09DFFFC23E058002829
:103B000002D008216FF096FF80235B00E058002868
:103B100002D008216FF08EFF82235B00E05800285E
:103B200002D008216FF086FF84235B00E058002854
:103B300002D008216FF07EFF86235B00E05800284A
:103B400002D008216FF076FF88235B00E058002840
:103B500002D008216FF06EFF8A235B00E058002836
:103B600002D008216FF066FF8C235B00E05800282C
:103B700002D008216FF05EFF8E235B00E058002822
:103B800002D008216FF056FF90235B00E058002818
:103B900002D008216FF04EFF92235B00E05800280E
:103BA00002D008216FF046FF94235B00E058002804
:103BB00002D008216FF03EFF96235B00E0580028FA
:103BC00002D008216FF036FF98235B00E0580028F0
:103BD00002D008216FF02EFF9A235B00E0580028E6
:103BE00002D008216FF026FF9C235B00E0580028DC
:103BF00002D008216FF01EFF9E235B00E0580028D2
:103C000002D008216FF016FFA0235B00E0580028C7
:103C100002D008216FF00EFFA2235B00E0580028BD
:103C200002D008216FF006FFA4235B00E0580028B3
:103C300002D008216FF0FEFEA6235B00E0580028AA
:103C400002D008216FF0F6FEA8235B00E0580028A0
:103C500002D008216FF0EEFEAA235B00E058002896
:103C600002D008216FF0E6FEAC235B00E05800288C
:103C700002D008216FF0DEFEAE235B00E058002882
:103C800002D008216FF0D6FEB0235B00E058002878
:103C900002D008216FF0CEFEB2235B00E05800286E
:103CA00002D008216FF0C6FEB4235B00E058002864
:103CB00002D008216FF0BEFEB6235B00E05800285A
:103CC00002D008216FF0B6FEB8235B00E058002850
:103CD00002D008216FF0AEFEBA235B00E058002846
:103CE00002D008216FF0A6FEBC235B00E05800283C
:103CF00002D008216FF09EFEBE235B00E058002832
:103D000002D008216FF096FEC0235B00E058002827
:103D100002D008216FF08EFE2000FFF701FA10BDDF
:103D2000F8B5C6235B00C3580400DA79002A4DD1E8
:103D300000795A7A002A18D0C022A2580500576884
:103D4000C422A258FEB252681100014030008C46D5
:103D50002900D2B210438143C8B22F4201D0104390
:103D6000C0B262462071002A2CD19222FF32D97B48
:103D7000A25C914204D000F0B9FFC6235B00E35877
:103D80000F21C822014021715200A25C0509EDB249
:103D9000002A01D1294321715879042833D000F039
:103DA000B7FFC82320715B00E35C012B3BD0022BE3
:103DB00007D100F0A9FE6082207900F0E1FE2571B4
:103DC000A082F8BD3043C0B22071CEE7C82282582D
:103DD00005795668CC228258F1B252680800170063
:103DE0002F40BC462F00D2B21043874338002E42EA
:103DF00001D01043C0B262462071002A99D0084316
:103E0000C0B2207195E75B78072BC8D89622DA40BC
:103E1000D307C4D5033800F07BFFC82320715B00B3
:103E2000E35C012BC3D100F06FFEE081207900F04C
:103E3000A7FE25712082C4E70122F8B51700C04D06
:103E400004002B78BFF35B8F1F401A4200D1D1E1F1
:103E5000BC4E30001DF018F9C223BB4E5B00C558A4
:103E60003378BFF35B8FDB0700D4B9E1B74F3B6812
:103E7000002B00D1B2E13378BFF35B8FDB0700D4B6
:103E8000C6E1386803681B6B9847A0235B00E258C3
:103E900000231168294200D09388A381C023E258EF
:103EA00000231168294200D01379C422A258116856
:103EB000294201D012791343C822A258116829421D
:103EC00001D012791343CC22A2581168294201D0A3
:103ED00012791343A8225200A2581168294203D034
:103EE000526812011343DBB2AA225200A258116891
:103EF000294203D0526812011343DBB2AC225200B4
:103F0000A2581168294203D0526812011343DBB250
:103F1000AE225200A2581168294203D05268120101
:103F20001343DBB22371D023E1580A6813002B40FE
:103F30002A4200D04B68D422A2581168294201D0ED
:103F400052681343D822A2581168294201D05268FE
:103F50001343DC22A2581168294201D0526813434E
:103F6000E022A2581168294201D052681343E4228A
:103F7000A2581168294201D052681343E822A2587E
:103F80001168294201D052681343EC22A2581168EB
:103F9000294201D052681343F022A25811682942E5
:103FA00001D052681343F422A2581168294201D06B
:103FB00052681343F822A2581168294201D052686E
:103FC0001343FC22A2581168294201D052681343BE
:103FD00080225200A2581168294201D0526813432E
:103FE00082225200A2581168294201D0526813431C
:103FF00084225200A2581168294201D0526813430A
:1040000086225200A2581168294201D052681343F7
:1040100088225200A2581168294201D052681343E5
:104020008A225200A2581168294201D052681343D3
:104030008C225200A2581168294201D052681343C1
:104040008E225200A2581168294201D052681343AF
:1040500090225200A2581168294201D0526813439D
:1040600092225200A2581168294201D0526813438B
:1040700094225200A2581168294201D05268134379
:1040800096225200A2581168294201D05268134367
:1040900098225200A2581168294201D05268134355
:1040A0009A225200A2581168294201D05268134343
:1040B0009C225200A2581168294201D05268134331
:1040C0009E225200A2581168294201D0526813431F
:1040D000A360A2235B00E3581B682B4238D0C8239F
:1040E00000225B00E254C0235B00E3581B682B40B6
:1040F0005A1E93419222FF32A354B0235B00E3582F
:104100001B682B424DD00023E381B4235B00E358AE
:104110001B682B423BD000232382B8235B00E3586B
:104120001B682B4229D000236382BC235B00E35829
:104130001B682B4217D00023A3820023E382F8BD23
:10414000BC4C002078250120A84C002070240120C0
:10415000A4235B00E3581B682B4234D0C823012200
:104160005B00E254BFE7BE235B00E3581B682B42B1
:1041700027D001235B42A382DFE7BA235B00E35829
:104180001B682B421BD001235B426382CDE7B62321
:104190005B00E3581B682B420FD001235B42238254
:1041A000BBE7B2235B00E3581B682B4203D001231B
:1041B0005B42E381A9E7E081A7E72082ADE7608267
:1041C000B3E7A082B9E7A6235B00E3581B682B4244
:1041D00028D0C82302225B00E25484E7154854E645
:1041E00030008AF049FE002800D13FE630008AF016
:1041F0005FFE3BE628008AF03FFE0F4E002800D10C
:1042000027E6280037707760B7608AF051FE20E615
:1042100030008AF031FE002800D132E630008AF00A
:1042200047FE2EE6C6235B00E358DA78C8235B001E
:10423000E25458E7FF7F000078250120F0B5C6461C
:1042400005000C0000B5322932D8D64A8B00D3586D
:104250009F46C6239B00C35C2A2B29D00122110054
:10426000D14F3B78BFF35B8F194088461A4200D18B
:10427000B2E2CE4E30001CF035FEC42301225B00BA
:10428000EA5401221100CA4F3B78BFF35B8F1940FB
:1042900088461A4200D18DE2C64E08206FF0BAFB64
:1042A000C54B01000360C54B4360300016F0B2F906
:1042B000C6239B00EC5480BCB846F0BD80238268C6
:1042C0009B0113438360F3E7802382685B01134300
:1042D0008360EDE7802382689B0013438360E7E7F8
:1042E000802382685B0013438360E1E70222037945
:1042F00013430371DCE70122037913430371D7E70A
:10430000802382681B0213438360D1E78023826885
:10431000DB0113438360CBE7802382681343836010
:10432000C6E74023826813438360C1E72023826885
:1043300013438360BCE71023826813438360B7E7AD
:104340000823826813438360B2E70423826813431F
:104350008360ADE70223826813438360A8E70123EB
:10436000826813438360A3E7C6239B00C35C162BBC
:104370009ED000201CF014FF9AE7802382681B0166
:104380001343836094E7C6239B00C35C2D2B00D1AD
:104390008EE701221100864F3B78BFF35B8F1940F7
:1043A00088461A4200D18FE2824E08206FF032FB1D
:1043B000834B010003609223DB018B800E233000CE
:1043C0008B7116F027F973E7C6239B00C35C2C2B77
:1043D00000D16DE701221100754F3B78BFF35B8F71
:1043E000194088461A4200D105E2724E08206FF04B
:1043F00011FB734B010003609023DDE7C6239B0094
:10440000C35C2B2B00D153E701221100664F3B7890
:10441000BFF35B8F194088461A4200D1FDE1634E1D
:10442000012130001CF014FC42E7082203791343F9
:1044300003713DE7042203791343037138E7C62370
:104440009B00C35C322B00D132E701221100584F90
:104450003B78BFF35B8F194088461A4200D145E292
:10446000544E08206FF0D6FA554B010003609C2390
:10447000A2E7C6239B00C35C032B00D118E7C62329
:1044800002225B00C358DA70FBE6C6239B00C35CC4
:10449000312B00D10CE701221100454F3B78BFF3CF
:1044A0005B8F194088461A4200D1C5E1414E082071
:1044B0006FF0B0FA424B010003609A237CE7C623F9
:1044C0009B00C35C302B00D1F2E601221100384F73
:1044D0003B78BFF35B8F194088461A4200D1CFE189
:1044E000344E08206FF096FA354B01000360982394
:1044F00062E7C6239B00C35C2E2B00D1D8E60122C5
:1045000011002B4F3B78BFF35B8F194088461A424E
:1045100000D1A3E1274E08206FF07CFA284B010060
:104520000360942348E7C6239B00C35C2F2B00D174
:10453000BEE6012211001E4F3B78BFF35B8F19408E
:1045400088461A4200D1ADE11A4E08206FF062FA97
:104550001B4B0100036096232EE7C6239B00C35C20
:10456000022B00D1A4E6C62301225B00C358DA70F7
:1045700087E6C6239B00C35C012B00D198E6C623C7
:1045800000225B00C358DA707BE6C6239B00C35C45
:10459000072B00D18CE6C62301225B00C3585A7159
:1045A0006FE6C04614260910BC4C00207825012077
:1045B000A44C002050240120FC2609100001000C0E
:1045C000E8260910C6239B00C35C062B00D16FE6CA
:1045D000C62300225B00C3585A7152E680238268CA
:1045E000DB001343836063E6C6239B00C35C122B8E
:1045F00000D15DE601221100DC4F3B78BFF35B8FF9
:10460000194088461A4200D1A0E1D94E0421300059
:104610001CF0A8FB002800D14AE6C42301225B005D
:10462000EA542EE6C6239B00C35C112B00D13FE663
:1046300001221100CD4F3B78BFF35B8F19408846B4
:104640001A4200D164E1CA4E032130001CF08AFBFB
:104650000028E2D12CE6C6239B00C35C102B00D1BE
:1046600026E601221100C14F3B78BFF35B8F194052
:1046700088461A4200D15AE1BD4E022130001CF09A
:1046800071FB0028C9D113E6C6239B00C35C0F2B26
:1046900000D10DE601221100B44F3B78BFF35B8FD0
:1046A000194088461A4200D16AE1B14E012130001A
:1046B0001CF058FB002800D1FAE5AEE7C6239B00AA
:1046C000C35C0E2B00D1F3E501221100A74F3B780C
:1046D000BFF35B8F194088461A4200D15FE1A44EB8
:1046E0000121A44AB35C4B40B354CAE5C6239B00E6
:1046F000C35C0A2B00D1DBE5C62301215B00C25855
:10470000537A4B405372BCE5C6239B00C35C0C2B11
:1047100000D1CDE5C62304225B00C3585A71B0E531
:10472000C6239B00C35C0B2B00D1C1E5C62303222B
:104730005B00C3585A71A4E5C6239B00C35C0D2BD4
:1047400000D1B5E5C62301215B00C258D37B4B40A5
:10475000D37396E5C6239B00C35C082B00D1A7E565
:10476000C62302225B00C3585A718AE5C6239B0008
:10477000C35C232B00D19BE5012211007B4F3B78CA
:10478000BFF35B8F194088461A4200D116E1784E7C
:1047900030001CF041FB40E7C6239B00C35C092BA3
:1047A00000D185E5C62301215B00C258D3794B4077
:1047B000D37166E538008AF05FFB6F4E002800D1A8
:1047C0006BE543466D4833607360B3608CF066FB05
:1047D00038008AF06DFB60E538008AF04DFB644ECE
:1047E000002800D146E54346380033707360B3605B
:1047F0008AF05EFB3EE538008AF03EFB5E4E002804
:1048000000D1F3E543465D4833607360B3608CF0DC
:1048100045FB38008AF04CFBE8E538008AF02CFBB9
:10482000534E002800D1FBE54346380033707360D7
:10483000B3608AF03DFBF3E538008AF01DFB4E4E75
:10484000002800D133E643464C4833607360B360C0
:104850008CF024FB38008AF02BFB28E638008AF025
:104860000BFB454E002800D155E6434643483360D4
:104870007360B3608CF012FB38008AF019FB4AE6D3
:1048800038008AF0F9FA3C4E002800D129E6434668
:104890003A4833607360B3608CF000FB38008AF0F4
:1048A00007FB1EE638008AF0E7FA334E002800D1F5
:1048B0004BE64346314833607360B3608CF0EEFAE8
:1048C00038008AF0F5FA40E638008AF0D5FA2A4E28
:1048D000002800D169E54346284833607360B3601F
:1048E0008CF0DCFA38008AF0E3FA5EE538008AF0F2
:1048F000C3FA214E002800D1B3E543461F48336078
:104900007360B3608CF0CAFA38008AF0D1FAA8E577
:1049100038008AF0B1FA164E002800D194E64346DA
:10492000380033707360B3608AF0C2FA8CE63800E6
:104930008AF0A2FA0E4E002800D19EE643463800C7
:1049400033707360B3608AF0B3FA96E638008AF089
:1049500093FA074E002800D158E6434638003370DA
:104960007360B3608AF0A4FA50E6C046BC4C0020E5
:1049700078250120C90D000050240120552F00107A
:1049800038008AF079FA154E002800D18EE64346A9
:10499000380033707360B3608AF08AFA86E63800B4
:1049A0008AF06AFA0D4E002800D199E64346380095
:1049B00033707360B3608AF07BFA91E638008AF056
:1049C0005BFA064E002800D1E2E643463800337019
:1049D0007360B3608AF06CFADAE6C046782501208D
:1049E000F8B54546DE4657464E46C623E0B55B0061
:1049F000C35805005B7B9846002B35D10400C723C4
:104A00009D349B00FF34C61802E01834A64224D01F
:104A100061790029F9D0A368AA681800924610406D
:104A20009842F2D12A79237893461A409342ECD1E6
:104A3000228A91464F46AA893A409145E5D152468D
:104A40005F4682439F432800AA602F71FFF7F6FB61
:104A5000012318349846A642DAD14346002B03D1ED
:104A6000C62342469B00EA54F0BCBB46B246A94668
:104A7000A046F8BD30B5174A91B0136801331360F2
:104A8000012B08D10122144B52421A6000225A60B5
:104A90009A60DA601A61114A136801331360012BBE
:104AA00001D011B030BD40220D4968466EF0ACFF18
:104AB00000230C4C402023606360A3606EF0AAFFCB
:104AC00005004022403569462060A5606EF09CFFDD
:104AD0006560E6E7984C0020804C0020944C002054
:104AE00008270910A470012070B5064D2C68AC424F
:104AF00006D0200024680C216EF09CFFAC42F8D157
:104B000070BDC0462C1601200C2370B51840042837
:104B100017D0082813D0164C2378BFF35B8FDB0720
:104B200011D5144D2B68002B1FD02378BFF35B8F5A
:104B3000DB0711D5286803681B6B984700E00E4817
:104B400070BD0020FCE720008AF096F90028E8D02C
:104B500020008AF0ADF9E4E720008AF08DF9002802
:104B6000E8D020008AF0A4F9E4E70448E8E7C0466A
:104B7000A84C002070240120FFFF0000FF7F0000F0
:104B8000032370B51840012817D0022813D0164C03
:104B90002378BFF35B8FDB0711D5144D2B68002BF7
:104BA0001FD02378BFF35B8FDB0711D5286803681C
:104BB0001B6B984700E00E4870BD0020FCE720000A
:104BC0008AF05AF90028E8D020008AF071F9E4E769
:104BD00020008AF051F90028E8D020008AF068F916
:104BE000E4E70448E8E7C046A84C00207024012010
:104BF000FFFF0000FF7F0000024B1B18013B1878ED
:104C00007047C046482709100122F8B54746CE46EE
:104C10000E00110080B5304F04003B78BFF35B8F6E
:104C2000194088461A4238D02C4D2D4FBB19013BF4
:104C30001B7823420FD02B4CA35D002B3ED02C6859
:104C4000AC4228D06B681B7AFF18013F3878C0BC93
:104C5000B946B046F8BD234B99469B5D002BEED07C
:104C60002C68AC4212D0A04643461B7A2468B3425B
:104C700009D1AB684046013BAB608AF005FA0C21D4
:104C800040466EF0D7FEAC42EDD1246800234A4680
:104C90009355AC42D6D10020D9E738008AF0ECF821
:104CA0000E4D0028C1D043466D602D60AB600E48AC
:104CB0008CF0F4F838008AF0FBF8B6E70C206EF0C0
:104CC000A9FE290006728AF0D7F9AB680133AB6000
:104CD0000123A355B3E7C0469C4C00202C160120AD
:104CE0004827091024160120E94A001010B50400D5
:104CF0000121FFF789FF02212000FFF785FF032133
:104D00002000FFF781FF04212000FFF77DFF10BD89
:104D100030B504000800042C19D003230B40022BEB
:104D20002DD0032B34D0012B41D00022454B08203D
:104D30001A70042500230C220A40082A1BD00C2AD2
:104D40000CD0042A05D0002118003F4A117030BD54
:104D5000052503223C4B1A702800F8E7022C47D0A7
:104D6000032C61D1384A1178002959D11800002349
:104D70001370ECE709200422334B1A70E7E7314A3D
:104D80000A2013700C2206250A40082AD7D1F2E720
:104D9000002C15D101220C212A4B08401A7008283A
:104DA000E8D00C2843D00428D2D00123CBE7254AF1
:104DB000092013700C2205250A40082ABFD1DAE722
:104DC000204A022C06D0032C1AD0002308200425E8
:104DD0001370B0E71378002BF7D0012B2AD00920ED
:104DE000052501230C220A40082AC4D00C2AA8D188
:104DF000154A11780029B9D00329A8D02800A6E7C0
:104E00001378002BE1D0012B18D00A2006250223AD
:104E10000C220A40082AAED00C2A00D091E7A1E764
:104E2000032900D093E797E71800074A9FE701207E
:104E3000054A9CE702230A200625D3E70920052519
:104E4000E6E7C0469117022090170220406870479D
:104E5000044B10B51868002803D09968091A6EF041
:104E6000E9FD10BD7C24012070B54368046805008D
:104E70009C4207D008CC186803681B6A98476B6887
:104E8000A342F7D170BDC04670B543680468050001
:104E90009C4207D008CC186803685B6998476B6828
:104EA000A342F7D170BDC04670B5436804680500E1
:104EB0009C4207D008CC186803681B6998476B6848
:104EC000A342F7D170BDC04670B5436804680500C1
:104ED0000E009C4208D008CC3100186803689B691A
:104EE00098476B68A342F6D170BDC046F8B55746E7
:104EF00045464E46DE460368E0B547689246344A6A
:104F00009946FB1A050088469B1093425CD0012607
:104F1000002B02D05E00B34250D843464A469C1A4A
:104F2000002E1BD100239B4652465B4612681A5145
:104F3000002C23DC434604345C44FF1A002F30DC91
:104F40004B46E719002B35D15B466F60AE602B6096
:104F5000F0BCBB46B246A946A046F8BD80239B05DF
:104F60009E422FD2B60030006EF054FD834652466A
:104F70005B4612685E441A51002CDBDD2200494674
:104F800058468DF095F8434604345C44FF1A002FD0
:104F900007DC4A46AB68E719991A48466EF04AFDA5
:104FA000D2E73A00414620006EF02EFD4B46E7194D
:104FB000002BC9D04A46AB68991AEEE74A46054E1F
:104FC0008C1AD0E7024ECDE703488AF095F9C04627
:104FD000FFFFFF1FFCFFFF7F4C27091070B50B6818
:104FE00006009B68080082B00C009847051E06D199
:104FF000236820005B689847280002B070BD082035
:105000006EF008FD23680190DB6820009847019B43
:105010007168B2681C60914202D008C17160EBE710
:10502000300001AAFFF762FFE6E7C046F0B5C646CA
:1050300000B50B6806009B68080082B00C0098471A
:10504000051E08D1236820005B689847280002B03D
:1050500080BCB846F0BD08206EF0DCFC23680190EF
:10506000DB6820009847019B7168B2681C60914220
:105070002CD008C1716001221100174E3378BFF3A4
:105080005B8F194088461A420AD0144F2368144A8D
:105090005B6A934216D1616838001CF011FBD5E7BA
:1050A000300089F0E9FE0D4F0028EFD043460D484F
:1050B0003B607B60BB603B618BF0F0FE300089F0B1
:1050C000F7FEE3E7200098470100E5E7300001AA7A
:1050D000FFF70CFFCFE7C046B04C00207C24012036
:1050E0004D4E0010514E0010F0B54746CE4680B5EB
:1050F00085B0039301910B0C029298460D0A037E32
:10510000EDB20400AB4200D098E0BA4B61695A6A34
:10511000006991426DD89B6A834200D2B2E01923A4
:10512000270099461D37A1446B46042239004846A2
:105130001E796EF069FC01231A0032406277720812
:105140001A40A277B2081A40E2772022F6081E40E1
:10515000A654052D00D1C5E050D8032D00D1D7E0CD
:10516000042D21D1637E002B00D010E1A37E002B03
:1051700000D023E1E37E002B00D01FE1237F002B32
:1051800000D01BE169F0E8FDFA2206000F000023C1
:105190004046002192006EF021FA36184F41002F50
:1051A00000DACCE026616761637F002B68D02123A1
:1051B000E35C5B43DB439BB2A380A37F002B5DD00A
:1051C0002123E35C5B43DB439BB2E380E37F002B63
:1051D00052D02123E35C5B43DB439BB2238120233A
:1051E000E35C002B45D02123E35C5B43DB439BB2B4
:1051F000638105B0C0BCB946B046F0BD062DD3D121
:10520000029A039D617E002A40D1002900D0B9E0B6
:105210006377A37E002B00D0CDE00133A377E37E3C
:10522000002B00D0C4E00133E377237F002B00D1B3
:10523000BAE0202300220025E25440E019239946D9
:10524000270081440422002148461D376EF0D6FB1A
:105250000422002138006EF0D1FB69F07DFD21238E
:10526000FF2220616161E25400220133E25425767D
:105270005AE7614B6381BCE75F4BAFE75E4BA4E746
:105280005D4B99E7914200D049E7B2E7002D63D129
:10529000002901D015006377A37E002B02D00123E3
:1052A0001500A377E37E002B02D001231500E377DE
:1052B000237F002B03D0202301211500E15469F046
:1052C0004BFDFA2206000F00002328000021920067
:1052D0006EF084F980197941002916DA01204749D6
:1052E000404212E02221625C002A2CD02122A35CE1
:1052F0000533DBB2A354FF2B46D069F02DFD00230C
:105300003F4A801859410029E8DB206161614BE781
:10531000637E002B01D000236377A37E002B01D096
:105320000023A377E37E002B01D00023E377237FC4
:10533000002B00D126E720230022E25422E7012699
:105340002E4F76422EE72120225C053AD2B222541B
:10535000002AD2D16354D0E7002900D0002363771C
:10536000A37E002B3ED10133A377E37E002B36D101
:105370000133E377237F002B16D020230021150073
:10538000E1549CE7627744E700236354B5E70422C5
:10539000002138006EF032FB00230322013313405A
:1053A000E318023A5A77EDE620230122E25486E719
:1053B0000023E37739E70023A37730E704220021B5
:1053C00038006EF01BFBA37E002B10D1E37E002B78
:1053D0000BD1237F002B00D1D4E60323DDE700238C
:1053E000E377C7E70023A377BFE70223D5E70123CD
:1053F000D3E7C04600400540FFFF0000FFFFFF7FEE
:10540000204E0000F0B557464546DE464E469246D1
:10541000274AE0B593468A268C221F00431E5A4332
:105420004E43B5185D446B890400904685B0BB427D
:1054300009D200239946484605B0F0BCBB46B246A7
:10544000A946A046F0BD6EF071FE297981460300A1
:105450002000002B28D06FF0C3FF29798146002956
:10546000E7D00028E5D120006FF00EFF0390002860
:10547000DFD04C3646445E443A00514630006EF070
:10548000C3FA4B46297932000193009320003B0078
:105490006FF042FF81460028CDD1200029796FF0BE
:1054A00017FF039B9946C6E76FF09AFFC3E7C04614
:1054B000005100208C2210B50021034892006EF0AC
:1054C0009DFA012010BDC04600510020F0B5050036
:1054D000C6468C246A1E00B55443204E82B034194F
:1054E000E778C8098F4235D02479611A4C1EA14152
:1054F0004942C9B20F00012812D0194800280AD029
:105500008C208A2442437C434C32121928009BB2DF
:10551000B2181CF0E3FB012002B080BCB846F0BD1D
:105520008C245443A04620008A247C430C30071965
:10553000F7193A0028009BB21CF08EFB002244446D
:1055400036193389F1782800019200923A006FF001
:10555000E3FEE0E700270021CDE7C0460051002030
:10556000DD1C0210F0B5C646050000B504281AD8A7
:105570008C26431E5E430D4FBB1998460C4B002BE7
:105580000CD0BB5D002B09D00024210028001CF0AA
:1055900033FB0134BB5DE4B2A342F6D88C22002178
:1055A00040466EF02BFA80BCB846F0BD005100209A
:1055B000F91B0210F0B557464E46DE464546E0B5AB
:1055C00053790F00160085B0FF2B09D0032B07D0AD
:1055D000002005B0F0BCBB46B246A946A046F0BDCF
:1055E0007B1E9B468C235A465A435A4B91461C00BD
:1055F0004C449A46E378002BEAD12379002BE7D17B
:10560000B3795D2B39D0472BE2D1F379D02BDFD1A1
:105610003379002BDCD0013BDBB29846350013E038
:1056200022716B7929791B020B435B055B0D290005
:10563000380063816FF0ACFE0028C9D04346013BBF
:10564000DBB29846FF2B5BD02B78ED186B78052BDF
:10565000BED10223EB56AA78002BE1DAE2706B7917
:1056600029791B020B435B055B0D29003800238160
:105670006FF08EFE0028E1D1AAE7F379013B022BFF
:10568000A6D83378F51803956B78212BA0D1337900
:105690005A1ED2B29046002B0DD11FE029003800CF
:1056A00023716FF075FE002892D04346013BDBB2B8
:1056B0009846FF2B12D02B78ED186B78052B00D075
:1056C00086E70222AA56AB78002AE7DA29003800DA
:1056D000E3706FF05DFE0028E7D179E78C215A4630
:1056E0005143B37851448B7001234B71F379012BF3
:1056F00020D0534652461B7801200133137068E7CF
:105700005A468C215143B37851448B7002234B711C
:10571000534652461B780020013313704A460C3220
:105720000B895244C9780190009038006FF0F4FD65
:1057300001204EE74A460020039B0C321B7952445D
:105740008B710B89C9780190009038006FF0E4FDEF
:10575000CFE7C046005100208C23421E70B55A434B
:105760000B4C0500A3189B78591A4B1E99418A23AC
:105770004942C9B24B439B18E418A37962791CF0E3
:10578000F9F92800A1786FF0A7FF012070BDC0468D
:105790000051002070B504220021040000256EF0A5
:1057A0002DF900230D4AA580E58025816581A5811D
:1057B000E58123742000A35480220021D2005430BC
:1057C0006EF01CF92000064B4022E55200211130FA
:1057D0006EF014F952232000E55270BD560400000B
:1057E0005404000070B504220021040000256EF06E
:1057F00005F900230D4AA580E58025816581A581F5
:10580000E58123742000A35480220021D20054306B
:105810006EF0F4F82000064B4022E55200211130D2
:105820006EF0ECF85223E55270BDC04656040000FD
:1058300054040000F0B5C64604000D0000B5032A6C
:1058400064D952270E78C253012E57D04B780422C8
:105850007F2B31D800216EF0D1F8002600236C4A4E
:10586000A680E68026816681A681E6812374A35402
:1058700054239846A0440021563A40466EF0BEF8A4
:105880002000644B4022E652002111306EF0B6F841
:10589000E6530422290020006EF0B6F8E678002EC8
:1058A00061D1012200205B4BB6B2E680E652584B34
:1058B000E25480BCB846F0BD6EF0A6F8E278002A4B
:1058C00046D063785B0661D42389E088D31896B20A
:1058D000238154303A2A02D980235A4096B22018A4
:1058E000A91D6EF091F80122E3880020F618E389E3
:1058F000E6800133E381464BE254DAE70D2A05D115
:105900004B789B0602D5CB78092B32D0042200219C
:1059100020006EF073F80025002320003C4A237419
:105920000021A580E58025816581A581E581543030
:10593000A354563A6EF062F82000364B4022E552EE
:10594000002111306EF05AF852230020E552B0E7E2
:105950006B792879A1881B020343994210D02C4B04
:105960000020E254A5E732004046291D6EF04CF8B5
:1059700097E7093A6EF048F8254B0120E65498E77E
:105980000123234A23740120A35492E70422002117
:1059900020006EF033F80026002320001C4A2374F8
:1059A0000021A680E68026816681A681E6815430AA
:1059B000A354563A6EF022F82000164B40220021E4
:1059C000E65211306EF01AF8042229002000E65346
:1059D0006EF01AF8E2783A2A0AD92B79002B07D10F
:1059E0006B79A3800B4996B263525420268171E7EC
:1059F0006B7929791B020B438021A38049008B42DC
:105A0000F0D9013BFF3B9BB2190AC9015B1AE9E7D8
:105A10005604000054040000007C7047014BC05C39
:105A20007047C0465604000082705A01202313407C
:105A3000102230B504AD2D7803AC2D012A4013435C
:105A40004F22247801704178E40123430A40134334
:105A5000437030BDC02370B59B01050014000020C9
:105A60009A4206D8280054306DF0CEFF0120014B39
:105A7000EC5270BD54040000F0B5DE4657464E4669
:105A80004546E0B54378040085B07F2B00D87FE021
:105A9000C2899246002A58D0AD4A8789825A9046D8
:105AA000974200D13BE1402293434370012353448A
:105AB000180005219B466BF087FB6378002900D016
:105AC000CAE01022134363704346DB1B392B00DC12
:105AD000F8E03B003A223A339BB298463A2391468B
