:020000041000EA
:1000000000B5324B212058609868022188439860DF
:10001000D860186158612E4B002199600221596106
:100020000121F02299502B49196001219960352056
:1000300000F044F80222904214D00621196600F024
:1000400034F8196E01211966002018661A6600F04E
:100050002CF8196E196E196E052000F02FF8012189
:100060000842F9D1002199601B49196000215960AB
:100070001A491B48016001219960EB211966A021F2
:10008000196600F012F800219960164914480160C1
:100090000121996001BC002800D000471248134993
:1000A000086003C880F30888084703B5996A0420EC
:1000B0000142FBD001200142F8D103BD02B5186610
:1000C0001866FFF7F2FF186E186E02BD00000240BE
:1000D000000000180000070000035F00212200005C
:1000E000F4000018222000A00001001008ED00E03C
:1000F00000000000000000000000000074B24E7A12
:1001000000200420F7010010C3010010C5010010F9
:10011000C1010010C1010010C1010010C101001097
:10012000C1010010C1010010C1010010C701001081
:10013000C1010010C1010010C9010010CB01001065
:10014000CD010010CD010010CD010010CD01001037
:10015000CD010010CD010010CD010010CD01001027
:10016000CD010010CD010010CD010010CD01001017
:10017000CD010010CD010010CD010010CD01001007
:10018000CD010010CD010010CD010010CD010010F7
:10019000CD010010CD010010CD010010CD010010E7
:1001A000CD010010CD010010CD010010CD010010D7
:1001B000CD010010CD010010CD010010CD010010C7
:1001C00000BE00BE00BE00BE00BE00BEEFF3058054
:1001D000103800BEF2EB887178B710109CB7101081
:1001E0003402001090A31AE700201F49086006C8D7
:1001F00081F3088810471D48006800282FD10DA4FE
:100200000ECC002902D000F012F8F9E71849194A7B
:10021000002000E001C19142FCD1174988471749ED
:1002200088471749884700BEFDE701C901C29A42C5
:10023000FBD370479CB71010C0000020EC48002092
:10024000C8FF10100000042000000420C8FF101098
:10025000001004200010042000000000704709482E
:1002600071F06CF80047000008ED00E0000000D0DD
:1002700020490020D017022065FB0610290300103A
:1002800099FC06105756000006005250ABB360535D
:1002900018070A1006005250861C030228070A108D
:1002A000060052505422A29D34070A1005005250F5
:1002B000DE65F468C8FF1010F8B5C04610B5064CEE
:1002C0002378002B07D1054B002B02D0044800E017
:1002D00000BF0123237010BD484C00200000000027
:1002E000A8220910044B10B5002B03D00349044881
:1002F00000E000BF10BDC046000000004C4C0020D4
:10030000A822091010B577F0FBFB044C206802F01E
:10031000D9FC206802F0E0FE10BDC046F05000207D
:1003200010B590F09FFE0000FA2070B5800073F0C9
:100330005DFC040002F07EFFC72300259B00E55012
:10034000E3185D609D60EA239B00E01800F024FD47
:10035000F3239B00E554E3185D601D619B60DB6047
:10036000F8239B00E550104E0433E5501420346010
:1003700073F03CFC050002F09DFC0C4C30682560DD
:1003800001F0DCFF0A4877F093FB23681B7C002B0D
:1003900004D1C04623681B7C002BFAD0306800F0E3
:1003A0001DFF002070BDC046EC500020F050002022
:1003B000050300107047C0462C23C05C7047C04640
:1003C0007047C0462C23C05C7047C0467047C0468B
:1003D0002C23C05C7047C0467047C0462C23C05CCD
:1003E0007047C0467047C0462C23C05C7047C0466B
:1003F0000A68F8210368012089005854507904499B
:1004000058549179034A9954002101329950704708
:10041000E1030000E3030000036801200A680349C8
:1004200058549168F922920099507047E3030000F4
:1004300010B5074C200089F095FA20003C3C89F06B
:1004400063FA200089F08EFA200089F05DFA10BD71
:100450000C25012010B50400302173F0D7FB2000DB
:1004600010BDC04610B50400302173F0CFFB200052
:1004700010BDC04610B50400302173F0C7FB20004A
:1004800010BDC04610B50400302173F0BFFB200042
:1004900010BDC04610B50400302173F0B7FB20003A
:1004A00010BDC046044B10B51868002803D09968E9
:1004B000091A73F0ABFB10BD7C240120F0B5C646D1
:1004C000194B00B59846C0CBBE421AD07468B568C7
:1004D000AC420AD0A368002B1ED0210020000322CA
:1004E00010349847A542F5D17568002D18D0F368EF
:1004F0002800591B103673F089FBB742E6D14346FA
:100500001F68002F05D0434699683800C91B73F057
:100510007DFB80BCB846F0BD1034A542DAD1E3E7DC
:100520001036B742D2D1EAE750240120012A03D085
:10053000022A03D0002070470160FBE70B680360CC
:10054000F8E7C046012A03D0022A03D000207047F2
:100550000160FBE70B680360F8E7C046F0B557465B
:10056000DE464E46454681461823E0B54B448BB0E7
:100570000360079301234360FE2300259B0503616D
:100580008560C5604561856110200F00511A48449F
:10059000C910049206908FF02FF84B465B68040058
:1005A0009A46984214D9012800D1E3E080239B05A4
:1005B000984200D3E8E08600300073F017FB320069
:1005C0000021050073F006FB4B46A2461D605C60EF
:1005D000049BBB4257D04B461B68B8460393082385
:1005E0004B44059343461F885146380070F000FF86
:1005F0008B009B465A46039B9B58002B0FD05646B8
:100600008A461C68A588BD4233D02468002C06D0D9
:10061000A5883100280070F0EBFE8A45F3D00C204D
:1006200073F0E4FA002306000822414608C073F084
:10063000D7FA01234A4600934B4608ACDB682000FA
:10064000526806998FF02CF82378002B22D14B4664
:100650001B680393039C5C442368002B00D176E065
:100660001B68336023681E604B464A46DB680133D3
:10067000D36008239C46049BE044434503D04B468B
:100680005B689A46AEE70BB0F0BCBB46B246A946E3
:10069000A046F0BD63689A46012B6FD080239B056E
:1006A0009A4571D253469C00200073F09FFA2200B5
:1006B0000021039073F08EFA4B4600229D689A60E9
:1006C000002D2BD00023B3465646BA461F0005E046
:1006D000126822601B681C60002D1CD02C003100A9
:1006E000A08870F085FE039A8B00944663441A68D4
:1006F0002D68002AECD14A46926822604A469460EE
:10070000059A1A602368002B32D06346BF00FC5064
:100710000F00002DE2D15746B2465E464B4603CB52
:10072000079B834202D0890073F070FA4B46524611
:100730005A60039A51461A60380070F059FE8B00D7
:100740009B46039C5C442368002B00D088E74B4603
:100750004A469B6896603360002B06D098885168A3
:1007600070F046FE039B8900CE50059B23607BE71B
:100770000F00B1E74B469D61079D25E74B460022E0
:100780009A61079B039397E78EF07AFEF0B54E4689
:10079000DE465746454681461823E0B54B448BB0AC
:1007A0000360079301234360FE2300269B0503613A
:1007B0008660C6604661866110200D00511A48446B
:1007C000C910049206908EF017FF4B465B68040038
:1007D0009A46984214D9012800D1E5E080239B0570
:1007E000984200D3EAE08700380073F0FFF93A003E
:1007F0000021060073F0EEF94B46A2461E605C60D5
:10080000049BAB4257D04B461B68039308234B44D1
:1008100005932B8851461800984670F0E9FD8B002F
:100820009B465A46039B9B58002B10D04746884650
:100830001C68A688BE423AD02468002C06D0A68840
:100840005146300070F0D4FD8845F3D0B8460C20F6
:1008500073F0CCF90022030004C306CD06C30123C4
:100860004A4600934B4608ACDB68060052682000FD
:1008700006998EF015FF2378002B23D14B461B6879
:100880000393039C5C442368002B00D179E01B6830
:10089000336023681E604B464A46DB680133D360F1
:1008A000049BAB4207D04B465B689A46B1E7049B7A
:1008B0000835AB42F7D10BB0F0BCBB46B246A946F7
:1008C000A046F0BD63689A46012B71D080239B053A
:1008D0009A4573D253469C00200073F087F922009A
:1008E0000021039073F076F94B4600229F689A60CE
:1008F000002F2DD000239B462B005546B2465E4666
:100900009B4605E0126822601B681C60002F1CD00B
:100910003C002900A08870F06BFD039A8B00944680
:1009200063441A683F68002AECD14A469268226004
:100930004A469460059A1A602368002B32D06346B9
:10094000B600F4500E00002FE2D15646AA465D468E
:100950004B4603CB079B834202D0890073F056F9C4
:100960004B4652465A60039A51461A60404670F010
:100970003FFD8B009B46039C5C442368002B00D00A
:1009800085E74B464A469B6896603360002B06D04D
:100990009888516870F02CFD039B8900CE50059B10
:1009A000236078E70E00B1E74B469E61079E23E780
:1009B0004B4600229A61079B039395E78EF060FDFA
:1009C000012270B516000B4C2378BFF35B8F1E40DD
:1009D0001A4202D0084D280070BD20008EF038FB6E
:1009E000054D0028F7D020002E706E60AE608EF0AE
:1009F0004BFBF0E7BC4C0020B825012010B5084C9B
:100A00002378BFF35B8FDB0701D5064810BD2000BC
:100A10008EF01EFB0028F8D020008EF035FBF4E7A6
:100A2000A84C0020702401200122F0B54646D6468D
:100A30004F461500C0B51F4C06002378BFF35B8FEF
:100A40001D401A4229D0CA270023BF00F3510133A9
:100A50009946D0231B0600249846174D0023EB56D9
:100A6000002B11DD20006DF007F94B46A3409A469C
:100A70004346524601219A62200000226DF09EF802
:100A80005346F2591343F351013414351E2CE5D16A
:100A9000E0BCBA46B146A846F0BD20008EF0D8FAB8
:100AA0000028D0D0054B20001D705D609D608EF049
:100AB000EBFAC8E7BC4C002099620120B825012060
:100AC000D023F0B557464E464546DE4601221B066A
:100AD000E0B55E681500F3433C4F83B001933B786B
:100AE0000400BFF35B8F1D401A4260D0384B98461C
:100AF000404620F01DFCCA239B00019AE358009059
:100B00001340C222520082589A4212D00122110090
:100B10003B78BFF35B8F194089461A4239D0434670
:100B2000DB6E9B46002B0BD1009A01998533FF3376
:100B3000D15003B0F0BCBB46B246A946A046F0BDBA
:100B400002F064FBCA23C2219B00E758490004332A
:100B50008246E2180120002389460100994039426B
:100B600012D04C46009D019E2C592500754029420B
:100B70000AD055461668AD1B5D4505D961404C4607
:100B8000009D295151461160013304321E2BE4D1DE
:100B9000CFE738008EF05CFA0028C0D043464A46C2
:100BA00038001A705A609A608EF06EFAB7E7380013
:100BB0008EF04EFA064B9846002899D038001D70EA
:100BC0005D609D608EF060FA92E7C046BC4C0020EC
:100BD000B8250120F8B5CE46474680B5040020F080
:100BE0006BFC674A0300904214D0664A904209D0D9
:100BF0000020002B10D0C0BCB946B046F8BD2D79FE
:100C0000ED075AD50220F6E729790B42FAD10121E6
:100C1000002854D00120EEE7012215005A4F3B78FE
:100C2000BFF35B8F1D401A4260D0584B9846404638
:100C300020F07EFB012216003B780500BFF35B8F9E
:100C40001E401A4200D18AE0404620F075FB0600A3
:100C50002000FFF735FF280003F012FAC7239B009E
:100C60009946A144484604F033FA280003F07CF981
:100C7000484604F03DFA2422301D291D72F0B0FFD1
:100C8000012216003B78BFF35B8F1E401A4259D0F9
:100C900042463F4BD35C012B36D0DA1E51424A41CB
:100CA000D1B2AA688020C0261700023B8000B6009F
:100CB000DBB210403740B742A1D0012BA8D80029A1
:100CC0005BD1F321F22389008C469B00E3189B68DB
:100CD0006444002B51D0210003E019009B68002BD5
:100CE00020D018698242F8D9DB68F8E738008EF026
:100CF000AFF9264B9846002899D038001D705D60EA
:100D00009D608EF0C1F992E7AA688020C02116008C
:100D10008000890010400E408E4200D174E7431ECF
:100D2000984168E700208C4200D164E70B699A4241
:100D300000D260E74B690E2B00D95CE7154A9B0097
:100D4000985858E738008EF083F90028A0D0434621
:100D500038001E705E609E608EF096F998E738004D
:100D60008EF076F9002800D16EE7434638001E70F9
:100D70005E609E608EF088F966E700203BE7C04623
:100D8000A58477E7E1E437F7BC4C0020B8250120C3
:100D90000A31000050260910002305490370054B55
:100DA00001611A685B688260C3608261C3617047D9
:100DB0000C020C0160040A10F0B5037804000D0069
:100DC000170083B0002B1DD18B68002B08D0394B46
:100DD0001A685B68009201938260C36003B0F0BD43
:100DE000C168806803000B4341D00D00324B5A6A42
:100DF000AA42F3D39B6A834201D2AA42EED00123D6
:100E00002370EBE78B68028A93420AD0428A9342AE
:100E100007D0284B1A685B68009201938261C36116
:100E2000DCE7A069E16903000B4314D00E00224BFC
:100E30005A6AB242D2D39B6A834201D2B242CDD027
:100E4000AB68228A93421ED0628A9342C6D11B4865
:100E500020F0FAFAC2E76EF06BF80023184A801807
:100E6000594100291BDB0E00A061E161DFE76EF054
:100E70005FF83222002380185941002914DB0D004D
:100E8000A060E160B2E73800431E98410D4B0E4A66
:100E90009C4640421040604420F0D6FA9EE7012074
:100EA0000A4E0A494042DFE70120084D0749404207
:100EB000E6E7C04660040A1000400540E1E437F769
:100EC00000093D00A58477E728E25D5CFFFFFF7F16
:100ED00084B0F0B5454657464E46DE46E0B587B08D
:100EE00013939BB29B4692461292CAB21AAD1191CD
:100EF00001922B89594698466B892F7800935B465F
:100F0000DB43029343468B43D14304913900914321
:100F10005246D2436E680B4303925146320011A8E9
:100F20008A43814613432ED0012211006F4B1B7858
:100F3000BFF35B8F194005911A4200D1BEE06C4CA3
:100F4000302072F053FE002342460371049B0100DF
:100F50003B400372039B33409BB2C360029B134030
:100F60000382644B644A0360644B42614382836141
:100F7000634B0922C3610362436283622C23C25420
:100F8000200019F06DFC4346DB43424602935B466A
:100F90009343FA439046019ABA4313435246B243ED
:100FA000F74313432ED001221100504E3378BFF384
:100FB0005B8F194003911A426ED04D4C302072F075
:100FC00015FE002342460371019B0100134003728A
:100FD00053463B409FB25B46029AC7601340038270
:100FE000484B454A0360454B426143828361444B11
:100FF0000822C3610362436283622C23C25420002F
:1010000019F02EFC4B46009A5B89934204D14B4663
:10101000EA68DB689A4263D001221600334D2B78D0
:10102000BFF35B8F1E401A4226D0314C302072F045
:10103000DDFD002303710372C3600382304B0B227A
:10104000C361036243628362009B010043821D9B74
:1010500043611E9B83612C4B03602C23C2542000F0
:1010600019F0FEFB07B0F0BCBB46B246A946A0464D
:10107000F0BC08BC04B0184728008DF0E9FF1C4CF8
:101080000028D3D026606660A66020488FF0F2FF6B
:1010900028008DF0F9FFC9E730008DF0D9FF144C1E
:1010A000002800D18AE7039B184823606360A3608F
:1010B0008FF0E0FF30008DF0E7FF7FE70B488DF009
:1010C000C7FF0B4C002800D13AE7059B0F4823606F
:1010D0006360A3608FF0CEFF04488DF0D5FF2FE74B
:1010E0004B462A691B699A4296D1BBE7A44C002063
:1010F0005024012068230910FF7FFF7FFF7F00003D
:1011000000FEFF46542309107C230910BD04001083
:10111000F8B5F8239B00C25C0400002A2CD1274BB1
:10112000E25C002A1AD1264B1868596803000B4369
:1011300007D1F8BD0122234B214952420CC11000B6
:101140001900214B5A6A9142F3D89B6A834225D3F6
:10115000F9239B00E05820F077F9EAE70022E254F7
:101160006DF0E6FE0023194A801859410029E1DBA1
:10117000134B18605960D9E70022C254013217009E
:10118000134D2B78BFF35B8F1F401A4209D0114ECD
:10119000114B3000E15C1FF0AFFEC0E79142D7D1A8
:1011A000C7E728008DF054FF0A4E0028F0D0280031
:1011B00037707760B7608DF067FFE9E7E303000001
:1011C00020490020FFFFFF7F0040054020A10700CD
:1011D000BC4C0020B8250120E1030000F0B5DE463C
:1011E00057464E464546E0B5A9B08146FFF706FC96
:1011F00003791593FFF702FC03681693FFF7E0FBF2
:1012000020F096F88246FFF7DBFB20F095F804000B
:101210001A90002077F0E2F8524604321492EA2243
:10122000230092004A441792C72204331B930123E0
:1012300092004A44199206AA1D9222009B464C46EF
:1012400010321C92C42352465B00D35C002B00D0AA
:10125000ABE0242214991FA872F0C2FC2000FFF713
:101260002FFC504602F00CFF44224C200EAB9B1882
:101270001A780EAB1B181B881092994653461F799B
:101280009E689B89484698464B46DB4313934346EA
:101290008343D04312903800904332002099034397
:1012A0008A43CD43119113432CD05A46C34B1B782C
:1012B000BFF35B8F1A4018925A461A4200D11FE1C1
:1012C000302072F093FC002342460371129B35409C
:1012D0003B400372139BADB213400382B84BB94A33
:1012E0000360B94B426143828361B84B0722C361FB
:1012F0000362436283622C23C5600100C254B44878
:1013000019F0AEFA4346DB43424612934B469343F1
:10131000109AFD43BA431343119AF743B243134360
:101320002CD05E465A46A54B1B78BFF35B8F1E4000
:101330001A4200D1F6E0302072F058FC002303710D
:10134000109B129A2B400372119B01003B409FB2ED
:101350004B46134003829F4B9A4A03609A4B42616B
:1013600043828361994B0622C361036243628362B5
:101370002C23C760C254964819F072FA159BFF2BB4
:1013800071D11698514603689B68984701225146CF
:101390001798FFF711FD2000FFF7BAFEC42352464D
:1013A0005B00D35C002B00D153E75D465A468A4B65
:1013B0001B78BFF35B8F1D401A4200D1D4E0874EEB
:1013C000002537000023FB56002B02DD28006CF0BF
:1013D00071FC013514371E2DF4D15D465A467E4B03
:1013E0001B78BFF35B8F1D401A4200D1D8E07C48C8
:1013F0001FF044FF5D465A46774B1B78BFF35B8F67
:101400001D401A4200D1BDE0CA239B00984600232C
:101410004246A350D0231B06002599460023F356CD
:10142000002B10DD5F4628006CF026FCAF404B46D9
:1014300000229F62012128006CF0C0FB4346E35864
:101440001F434346E750013514361E2DE6D1504662
:1014500002F00CFC199803F02BFEC4230022514625
:101460005B00CA54F5E65D465A465E4B1B78BFF3F7
:101470005B8F1D401A4266D05B4820F0CFFA199B63
:101480009846180003F024FE504603F0CDFB514669
:1014900000221798FFF790FC504602F065FD404689
:1014A00003F026FE149D1D9B2A00C2CAC2C3C2CAF5
:1014B000C2C3C2CAC2C36B461C9A2000C2CAC2C3FE
:1014C000C2CAC2C31A9B04330ECBFFF701FD290029
:1014D00024221B9872F084FB169A51461368100060
:1014E0009B689847050001200021404276F0E8FF04
:1014F0004046290003F00CFE2000FFF709FEA1E69C
:101500002E488DF0A5FD002800D1D9E6304A189B61
:1015100036481360536093608FF0ACFD27488DF020
:10152000B3FDCDE625488DF093FD002800D102E7FC
:10153000274B2E481E605E609E608FF09BFD1F480B
:101540008DF0A2FDF7E627488DF082FD002893D0AC
:10155000254B27481D605D609D601D618FF08AFDF1
:1015600020488DF091FD87E71B488DF071FD002824
:1015700000D124E71A4B18481D705D609D608DF006
:1015800083FD1CE714488DF063FD002800D13BE784
:10159000134B11481D705D609D608DF075FD33E744
:1015A0000D488DF055FD002800D120E70C4B0A486E
:1015B0001D705D609D608DF067FD18E7A44C0020F4
:1015C00040230910FF7FFF7FFF7F000000FEFF46E2
:1015D000502401202C230910BC4C002099620120CA
:1015E000B8250120B04C00207C240120BD0400104F
:1015F000A5040010F0B50500C646CB680020EB60DE
:101600002B0000B54E680C0028606E60A860103397
:10161000103184C984C32F00A8611837012E0CD063
:1016200080239B059E4248D2B600300072F0DEFA5D
:1016300032000021070072F0CDFAA4682F60002C60
:1016400037D00C2072F0D2FA00220300070004C346
:10165000221D03CA03C3AF60B88869686FF0C8FE73
:101660002B002A68890008338B502668002E20D072
:10167000002398460C2072F0B9FA42460300040099
:1016800004C3321D03CA03C33C60A08869686FF0BD
:10169000AFFE2B6889009C4661440B68002B04D088
:1016A0003668002E05D02700E4E70F603668002E6C
:1016B000F9D1280080BCB846F0BD8DF0E1FEC046EF
:1016C000F0B50500C646CB680020EB602B0000B5E6
:1016D0004E680C0028606E60A8601033103184C919
:1016E00084C32F00A8611837012E0CD080239B05DE
:1016F0009E4248D2B600300072F078FA32000021E3
:10170000070072F067FAA4682F60002C37D00C2015
:1017100072F06CFA00230700082208C0211D72F045
:101720005FFAB8886968AF606FF062FE2B002A68C4
:10173000890008338B502668002E20D0002398465D
:101740000C2072F053FA43460400082208C0311DF1
:1017500072F046FAA08869683C606FF049FE2B6819
:1017600089009C4661440B68002B04D03668002E2B
:1017700005D02700E4E70F603668002EF9D1280075
:1017800080BCB846F0BD8DF07BFEC046F0B54F463C
:10179000D64646468C680B1DC0B581460F00904664
:1017A0009A46002C1DD0166804E0A3680122002B85
:1017B00007D01C002569AE42F7D3E3680022002B56
:1017C000F7D12300002A0DD1B54218D323004A4691
:1017D0001360002313714846E0BCBA46B146A846E0
:1017E000F0BD1C00FB68A3420CD020008DF06AFD08
:1017F000434605691E6823000400B542E6D2002B6B
:10180000E5D01C00A2451ED043461B689C462369B8
:101810009C45B6417642182072F0E8F903000500B5
:101820004246103303CA03C3534622002900300046
:101830008DF064FD7B694A4601337B614B461D6038
:1018400001231371C7E70126E5E7C046F0B5574607
:101850004546DE464E468046E0B50F0018218BB067
:10186000414414000492079101220160FE2142606C
:1018700089050022016110218260C260426182619B
:10188000E21B921041440591110189180A0289183E
:101890000A0489184942994200D2190005988DF02E
:1018A000ABFE43465B6804009A46834214D201288B
:1018B00000D1EEE080239B05984200D3F4E086003F
:1018C000300072F093F932000021050072F082F9C5
:1018D0004346A2461D605C60049B9F425DD0434628
:1018E0001B6803930823434406933B885146180022
:1018F00099466FF07DFD8B009B465A46039B9B5893
:10190000002B10D04E4689461C68A588AE423CD0BC
:101910002468002C06D0A588514628006FF068FD89
:101920008945F3D0B146402072F060F900230600EB
:1019300003603B88391D83800830FFF75BFE300071
:10194000390024302031FFF7BBFE012342460093CB
:10195000434608ACDB682000526805998DF0A0FE74
:101960002378002B21D143461B680393039C5C44DE
:101970002368002B00D179E01B68336023681E6068
:1019800043464246DB680133D360049B3C37BB428D
:1019900003D043465B689A46A7E740460BB0F0BCCD
:1019A000BB46B246A946A046F0BD63689A46012BE5
:1019B00074D080239B059A4576D253469C00200024
:1019C00072F014F922000021039072F003F94346EB
:1019D00000229D689A60002D2FD0002332009B4684
:1019E0003B0056465F4692469B4605E012682260E1
:1019F0001B681C60002D1CD02C003100A0886FF0EB
:101A0000F7FC039A8B00944663441A682D68002AF9
:101A1000ECD142469268226042469460069A1A606F
:101A20002368002B33D06346BF00FC500F00002D0D
:101A3000E2D153465F46B2461E00434603CB079BA6
:101A4000834202D0890072F0E1F8434652465A6060
:101A5000039A51461A6048466FF0CAFC8B009B46B9
:101A6000039C5C442368002B00D085E74346424634
:101A70009B6896603360002B06D0988851686FF0A1
:101A8000B7FC039B8900CE50069B236078E70F00CC
:101A9000B0E700234246079D936119E743460022C1
:101AA0009A61079B039392E78DF0EAFCF0B5DE465E
:101AB00057464E464546DD49E0B50A00DC4CDD4B55
:101AC000A54403608346103210A8FEF75FFEDA4992
:101AD00000250A0080AC103217A8FEF73FFD10A9C0
:101AE000258081A8FFF786FD17A988A8FFF7E8FDE4
:101AF000D2491EA80A007832FEF748FED0490126D6
:101B00000A0025A83032FEF729FDA6871EA990A855
:101B1000FFF770FD25A997A8FFF7D2FDC9492CA8AA
:101B20000A002032FEF732FE1022002136A872F0A1
:101B300051F8FE239B0506229A46379378232CA959
:101B4000E25239AF9FA8349633973595FFF752FD8F
:101B500033A9A6A8FFF7B4FDBB493AA80A00503242
:101B6000FEF714FEB94941A80A001832FEF7F6FC48
:101B7000B42303223AA9E252AEA8FFF73BFD41A9E4
:101B8000B5A8FFF79DFDB24948A80A004032FEF70C
:101B9000FDFDB0494FA80A001032FEF7DFFCF0232C
:101BA000042248A9E252BDA8FFF724FD4FA9C4A80A
:101BB000FFF786FDA84956A80A004832FEF7E6FD61
:101BC000A6495DA80A003032FEF7C8FC962305221C
:101BD0005B00E25256A9CCA8FFF70CFD5DA9D3A883
:101BE000FFF76EFD9E4964A80A001832FEF7CEFD8D
:101BF000102200216EA871F0EDFF71AB6B93984637
:101C000053466F93B42308225B00E25264A9DBA819
:101C10006C966D95FFF7EEFC6BA9E2A8FFF750FDFF
:101C2000904972A80A001832FEF7B0FD1022002178
:101C30007CA871F0CFFF7FAB7993994653467D9393
:101C4000D22309225B00E25272A9EAA87A967B9518
:101C5000FFF7D0FC79A9F1A8FFF732FD58460CAB8D
:101C600005930FAB04930BAB03930EAB02930DAB39
:101C700001930AAB0093210000231430F8AAFFF768
:101C8000E5FDF8AE3C3EB56A002D06D028002D6873
:101C90000C2171F0BBFF002DF8D1736A00219A006E
:101CA000306A71F097FF0023F362B3623300306A49
:101CB0003833716A984202D0890071F0A7FFF56845
:101CC000002D06D028002D680C2171F09FFF002DFB
:101CD000F8D1B36800219A00706871F07BFF00238F
:101CE0003361F360330070681C33B168984200D1EF
:101CF00018E3890071F08AFFA642C3D17B9D002DB5
:101D000006D028002D680C2171F080FF002DF8D13D
:101D10007A9B00219A00799B1800079371F05AFF73
:101D2000002379987A997C937B93484502D0890067
:101D300071F06CFF749D002D06D028002D680C21D9
:101D400071F064FF002DF8D1739B00219A00729806
:101D5000079371F03FFF002372987593749378ABEB
:101D60007399984202D0890071F050FF6D9D002D4B
:101D700006D028002D680C2171F048FF002DF8D105
:101D80006C9B00219A006B9B1800079371F022FF57
:101D900000236B986C996E936D93404502D0890037
:101DA00071F034FF669D002D06D028002D680C21AF
:101DB00071F02CFF002DF8D1659B00219A006498EA
:101DC000079371F007FF00236498679366936AABEB
:101DD0006599984202D0890071F018FF5F9D002D2F
:101DE00006D028002D680C2171F010FF002DF8D1CD
:101DF0005E9B00219A005D9B1800079371F0EAFE3C
:101E000000235D9860935F9363AB5E99984202D024
:101E1000890071F0FBFE589D002D25D028002D680B
:101E20000C2171F0F3FE002DF8D11DE008240910FB
:101E30001CFCFFFF54E30910182409102824091082
:101E4000A0240910D0240910F024091040250910FD
:101E50005825091098250910A8250910F025091002
:101E60002026091038260910579B00219A00569801
:101E7000079371F0AFFE00235698599358935CABCB
:101E80005799984202D0890071F0C0FE519D002DF3
:101E900006D028002D680C2171F0B8FE002DF8D175
:101EA000509B00219A004F9B1800079371F092FEFF
:101EB00000234F985293519355AB5099984202D0BA
:101EC000890071F0A3FE4A9D002D06D028002D68E0
:101ED0000C2171F09BFE002DF8D1499B00219A0046
:101EE0004898079371F076FE002348984B934A93E5
:101EF0004EAB4999984202D0890071F087FE439D0C
:101F0000002D06D028002D680C2171F07FFE002DD9
:101F1000F8D1429B00219A00419B1800079371F071
:101F200059FE002341984493439347AB429998420A
:101F300002D0890071F06AFE3C9D002D06D0280079
:101F40002D680C2171F062FE002DF8D13B9B002121
:101F50009A003A98079371F03DFE00233A983D931A
:101F60003C9340AB3B99984202D0890071F04EFE01
:101F7000359D002D06D028002D680C2171F046FEFD
:101F8000002DF8D1349B00219A00339B1800079351
:101F900071F020FE00233398349936933593B8427C
:101FA00002D0890071F032FE2E9D002D06D028004F
:101FB0002D680C2171F02AFE002DF8D12D9B0021F7
:101FC0009A002C98079371F005FE00232C982F930C
:101FD0002E9332AB2D99984202D0890071F016FEF3
:101FE000279D002D06D028002D680C2171F00EFED3
:101FF000002DF8D1269B00219A00259B18000793FD
:1020000071F0E8FD00232598289327932BAB2699A0
:10201000984202D0890071F0F9FD209D002D06D074
:1020200028002D680C2171F0F1FD002DF8D11F9BC7
:1020300000219A001E98079371F0CCFD00231E9892
:102040002193209324AB1F99984202D0890071F00C
:10205000DDFD199D002D06D028002D680C2171F0A2
:10206000D5FD002DF8D1189B00219A00179B180070
:10207000079371F0AFFD002317981A9319931DABC6
:102080001899984202D0890071F0C0FD129D002D70
:1020900006D028002D680C2171F0B8FD002DF8D174
:1020A000119B00219A001098079371F093FD002373
:1020B00010981393129316AB1199984202D089008D
:1020C00071F0A4FD00235A4659461363536393638A
:1020D000D3631364536448228B5402328B527422AC
:1020E0000026CB640B654B658B65CB650B664B6639
:1020F0008B66CB660B678B5202328E54052180258E
:1021000084209027753A2280013222820132228473
:1021100001326360E360A3606361E361A3616362B2
:10212000E362A36222863C326363E363A363A1524A
:10213000103201316364E364A364A15210320131AF
:102140006365E365A365A152103201316366E366FE
:10215000A366A152673A6367E367A367625383325A
:1021600023508031A3509046823A6350E2530437A3
:10217000E3510837E351043FE35101320837E2539A
:102180000437E3510837E351043FE3510132083784
:10219000E2530437E3510837E351043FE35101327E
:1021A0000837E2530437E3510837E351043FE35162
:1021B00001320837E2530437E3510837E351043F53
:1021C000E35101320837E2530437E3510837E35152
:1021D000043FE35101320837E2530437E351083733
:1021E000E351043F5A46E3517C2416555C44535155
:1021F000145054504146089480AC00262700535098
:10220000099447E088235A46D4583B88228A9A4248
:1022100042D2089BA34200D188E03B88228A9342A5
:102220009B415B420793202071F0E0FC3B88050056
:102230000382BB6899467B6898464B4642469E1A85
:10224000002343618361C361C14558D03A4B9E422C
:1022500000D96EE0300071F0C9FC83199A466861BC
:10226000EB61C14503D03200414671F0B9FC5346E1
:102270002200AB612900089B07988DF03FF88C2362
:102280005A46D258561C07925A46D6501037C0AB01
:102290009F421ED0002EB5D180235A46D458002C20
:1022A00033D0398804E0A3680120002B07D01C003C
:1022B000228A8A42F7D8E3680020002BF7D1002851
:1022C00024D19142E2D9002CA3D11037C0AB9F4258
:1022D000E0D13D00099C103D6868002812D0EB68F1
:1022E000191A71F093FCA542F5D15846F9239B00C9
:1022F0009D44F0BCBB46B246A946A046F0BD0026B0
:102300000020AAE7A542E6D1EFE7089C84235A46BD
:10231000D358A34200D17CE720008CF0D3FF39884A
:10232000028ACEE7A64200D0ACE4E7E4012307939B
:1023300079E78DF0A5F8C046FCFFFF7F0122F0B5DC
:1023400057464E46DE4645461400E0B5F84B0700BA
:1023500099461B7889B0BFF35B8F1C401A4200D1AD
:10236000FBE2F44E30001EF0B5FDF34D2B78BFF3C9
:102370005B8FDB0700D443E2F04C20001EF0BEFB75
:102380002B78BFF35B8FDB0700D462E220001EF0E6
:102390000DFC2B78BFF35B8FDB0700D481E22000BC
:1023A0001EF070FB2B78BFF35B8FDB0700D4A0E23D
:1023B000200000211EF096FC04AC02AD002800D0E5
:1023C000BFE2C720800071F011FC824600F032FFAE
:1023D000C720800071F00AFC804600F02BFF01222C
:1023E0004B4611001B78BFF35B8F19408B461A4296
:1023F00000D1F7E1514630001EF098FF01224B4614
:1024000011001B78BFF35B8F19408B461A4200D135
:10241000DAE1414630001EF08DFF01224B461100EB
:102420001B78BFF35B8F194088461A4200D1BDE18B
:1024300030001EF023FF504600F096FF3800FEF7F4
:10244000F3FA01224B4611001B78BFF35B8F194052
:1024500088461A4200D19BE10122736F02926B60A1
:10246000F2239B009846B8442A0041462000FFF71B
:102470008DF902230293F36F2A0041466B6020001E
:10248000FFF784F9042302938033F3582A0041466E
:102490006B602000FFF77AF9082302938433F35826
:1024A0002A0041466B602000FFF770F91023029369
:1024B0008433F3582A0041466B602000FFF766F929
:1024C000402302935C33F3582A0041466B6020009E
:1024D000FFF75CF9202302938433F3582A00414626
:1024E0006B602000FFF752F9802302932C33F358DE
:1024F0002A0041466B602000FFF748F97FF090FE0C
:10250000082071F073FB00239B4643608C4B010055
:102510000360C7239B00FD18280002F0ABFE0820D3
:1025200071F064FB5B464360864B0100036028004A
:1025300002F0A0FE882071F059FB8046882200211D
:1025400071F048FB4146804B28000B6002F06AFEA8
:102550000C2071F04BFB5B46436083607B4B0100BA
:102560000360280002F05EFE202071F03FFB8046F1
:102570002022002171F02EFB4146754B28000B6094
:1025800002F050FE102071F031FB80461022002135
:1025900071F020FB41466F4B28000B6002F042FEB9
:1025A000282071F023FB80462822002171F012FBC5
:1025B0004146694B28000B6002F034FE342071F074
:1025C00015FB80463422002171F004FB4146634B29
:1025D00028000B60624B0B6302F024FE902071F028
:1025E00005FB80469022002171F0F4FA4046FFF787
:1025F0005DFA4146280002F015FE282071F0F6FA37
:1026000080462822002171F0E5FA4146554B28000A
:102610000B6002F007FE1C2071F0E8FA80461C22D5
:10262000002171F0D7FA41464F4B28000B6002F0B1
:10263000F9FD542071F0DAFA80465422002171F03D
:10264000C9FA4146494B28000B6002F0EBFD80209F
:1026500071F0CCFA80468022002171F0BBFA41462D
:102660004046434B20220B600830002171F0B2FA43
:102670004346012241461A75404624233830CA5445
:102680003F323C4971F0ACFA4146280002F0CAFDE5
:10269000382071F0ABFA80463822002171F09AFAA6
:1026A0004246354B4146136043465A461A734246EA
:1026B0000C3353619361280002F0B4FD282071F0BF
:1026C00095FA80462822002171F084FA42462B4B6D
:1026D00041461360280002F0A5FD782071F086FACB
:1026E00080467822002171F075FA4246244B41461B
:1026F0001360280002F096FD582071F077FA8046AA
:102700005822002171F066FA42461E4B28001360E1
:10271000414602F087FDC62352465B00D35838007D
:102720005D78FEF757FA112800D93AE22CE0C0464E
:10273000BC4C0020B8250120B44C0020902401207E
:1027400008D2091024E60910E4CE0910E0CF0910E0
:1027500088D109105CD009108CD30910A4E50910A8
:102760003333534080E409101CE2091020E50910BE
:102770001CE0091088230910ACD409109CE0091052
:102780008CE1091008E40910DA4B80001B589F46C1
:1027900048468CF05DFC002800D15DE64346484683
:1027A00033707360B3608CF06FFC55E648468CF074
:1027B0004FFC002800D13BE6434648463370736027
:1027C000B3608CF061FC33E648468CF041FC002895
:1027D00000D11EE65B46484633707360B3608CF0F0
:1027E00053FC16E648468CF033FC002800D101E685
:1027F0005B46484633707360B3608CF045FCF9E586
:1028000028008CF025FCBC4C002800D1B5E5200048
:1028100086F07CFE2000203086F078FE20004030DC
:1028200086F0B0FF20007C3086F0ACFF2000B8308E
:1028300087F01AF9B1488EF01DFC28008CF024FCBA
:1028400020001EF05BF92B78BFF35B8FDB0700D510
:102850009CE528008CF0FCFB002800D196E52000C8
:1028600086F054FE2000203086F050FE20004030DC
:1028700086F088FF20007C3086F084FF2000B8308E
:1028800087F0F2F89D488EF0F5FB28008CF0FCFBF9
:1028900020001EF08BF92B78BFF35B8FDB0700D590
:1028A0007DE528008CF0D4FB002800D177E52000DE
:1028B00086F02CFE2000203086F028FE20004030DC
:1028C00086F060FF20007C3086F05CFF2000B8308E
:1028D00087F0CAF889488EF0CDFB28008CF0D4FB35
:1028E00020001EF0CFF82B78BFF35B8FDB0700D5FD
:1028F0005EE528008CF0ACFB002800D158E52000F4
:1029000086F004FE2000203086F000FE20004030DB
:1029100086F038FF20007C3086F034FF2000B8308D
:1029200087F0A2F875488EF0A5FB28008CF0ACFB70
:10293000200000211EF0D6F904AC02AD002800D121
:102940003FE523002A006E4801A96BF057F80028E4
:1029500011D16B496B486DF0A3F948468CF078FBB8
:10296000694E002800D1FDE4484634707460B460BC
:102970008CF08AFBF6E4049A029901986BF002F855
:102980001FE5624D2B78BFF35B8FDB0700D416E1A8
:10299000FF215F4817F0D4FDFF25012211005D4E95
:1029A0003378BFF35B8F194089461A4200D1C1E0EA
:1029B000594B9846594B0497E360594B2200A3604A
:1029C0000C21404618F0BEF8A368002B03D0032268
:1029D000210020009847012211003378BFF35B8F5C
:1029E000194089461A4200D172E04E4B0497E360C9
:1029F0004D4B2200A3600121404618F0A3F8A368C4
:102A0000002B03D00322210020009847092D00D17C
:102A1000B6E009B0F0BCBB46B246A946A046F0BD40
:102A200009239846394B9B461B78BFF35B8FDB0726
:102A300000D492E04146364817F082FDC623524644
:102A40005B00D3585D78A845A7D042465A70012252
:102A50004B4615001B78BFF35B8F1D401A4200D117
:102A600092E0012130001EF047FA454695E7022327
:102A70009846D7E70B239846D4E707239846D1E733
:102A800005239846CEE70D239846CBE704239846C6
:102A9000C8E708239846C5E706239846C2E70E23F1
:102AA0009846BFE703239846BCE700239846B9E75A
:102AB00001239846B6E70A239846B3E70C239846C5
:102AC000B0E71A486EF03AFC00210300080098476E
:102AD00030008CF0BDFA002800D186E743464A4614
:102AE00013481A605A609A608EF0C4FA30008CF075
:102AF000CBFA7AE7DC22091090240120310400107F
:102B0000C0D40100A8220910B8250120A84C00203B
:102B100070240120A44C002050240120F103001057
:102B20002D05001019040010450500105542000045
:102B3000BD04001030008CF08BFA264B984600281C
:102B400000D137E74A4624481A605A609A608EF0EE
:102B500091FA30008CF098FA2CE758468CF078FA0D
:102B6000002800D166E758468CF08EFA45462900C9
:102B70001A4817F0E5FCFF2D00D10EE7A8465DE7E7
:102B800017486CF0E7F844E748468CF061FA0028F3
:102B900000D166E7484635707560B5608CF074FA10
:102BA0005FE7104B9B461B78BFF35B8FDB07DED4E0
:102BB00058468CF04DFA0028D9D0A846D3E7280013
:102BC0008CF046FA002800D1E2E628008CF05CFA8E
:102BD000DEE6C04650240120BD0400107024012010
:102BE000AC0D0000A84C002030B51C4A93B013680F
:102BF00001331360012B08D10122194B52421A6094
:102C000000225A609A60DA601A61164A136801332A
:102C10001360012B09D0144A144B116852680091BB
:102C2000019219605A6013B030BD4022104902A8C9
:102C3000891870F0D5FF00230E4C4020236063609C
:102C4000A36070F0D3FF05004022403502A9206048
:102C5000A56070F0C5FF6560DDE7C046984C0020B8
:102C6000804C0020944C002060040A102049002071
:102C700088230910C8700120044B10B5186800287B
:102C800003D09968091A70F0C1FF10BD7C2401209F
:102C900010B5074C200086F065FE20003C3C86F015
:102CA00033FE200086F05EFE200086F02DFE10BD73
:102CB0000C2501200023036043608360C36003741C
:102CC0007047C046F8B557464546DE464E46E0B525
:102CD000E14D07002B78BFF35B8FDB0700D413E1D6
:102CE000DE4C20001DF00AFF2B78BFF35B8FDB0763
:102CF00000D432E120001DF059FF2B78BFF35B8F29
:102D0000DB0700D451E120001DF0BCFED44C237839
:102D1000BFF35B8FDB0700D467E1D24B18683860E4
:102D2000002800D170E103685B6898473868036841
:102D30005B6B9847CC4B041E984600D1E1E0012222
:102D400015001B78BFF35B8F1D401A4200D1ABE129
:102D5000C64B9946210048461EF006FE702070F0D2
:102D600045FF04007022002170F034FFC04B0025A5
:102D70002360012323749A4623002033A361202378
:102D80003E1DE5542100300002F04CFAE420C00062
:102D900070F02CFFE4220400D200002170F01AFF32
:102DA000B44B200023600A233030A36086F05AF829
:102DB000E6235B00E5542300CD33FF335D609D6067
:102DC0002000EC23E1305B00E550FF3063F084FC31
:102DD000A94B2100E554E3185D601D619B60DB6039
:102DE000300002F01FFA202070F000FF5246A34B83
:102DF000C560057445618561A14D03602B780400B1
:102E00001A4093465246BFF35B8F1A4200D112E13B
:102E10009C4B9A4652469C4B2100D35C3000237257
:102E200002F000FA102070F0E1FE040010220021F0
:102E300070F0D0FE954B21002360300002F0F2F9D3
:102E40001C2070F0D3FE04001C22002170F0C2FE92
:102E50008F4B21002360300002F0E4F9302070F045
:102E6000C5FE04003022002170F0B4FE894B210021
:102E70002360300002F0D6F9A82070F0B7FE0400FD
:102E8000A822002170F0A6FE834B21002360F623C8
:102E9000824A2831A2602373A2612377A2620B7158
:102EA000A26310310B71A26410310B71A265103155
:102EB0000B71A26610310B71A2670B7588216250ED
:102EC000210088310B7198216250220098321371D1
:102ED0002100300002F0A6F90122434614001B78BD
:102EE000BFF35B8F1C401A4200D192E048461EF0AF
:102EF000BDFC01233B74F0BCBB46B246A946A046CC
:102F0000F8BD5A4B994629E728008CF0A1F8534C9C
:102F1000002800D1E5E6200086F0F8FA20002030F5
:102F200086F0F4FA2000403086F02CFC20007C3043
:102F300086F028FC2000B83086F096FD58488EF0C8
:102F400099F828008CF0A0F820001DF0D7FD2B7810
:102F5000BFF35B8FDB0700D5CCE628008CF078F858
:102F6000002800D1C6E6200086F0D0FA20002030EC
:102F700086F0CCFA2000403086F004FC20007C3043
:102F800086F000FC2000B83086F06EFD44488EF0DC
:102F900071F828008CF078F820001DF007FE2B78DF
:102FA000BFF35B8FDB0700D5ADE628008CF050F84F
:102FB000002800D1A7E6200086F0A8FA20002030E3
:102FC00086F0A4FA2000403086F0DCFB20007C3044
:102FD00086F0D8FB2000B83086F046FD30488EF0F1
:102FE00049F828008CF050F88DE620008CF030F87D
:102FF000002800D191E620008CF046F8194B1868A3
:103000003860002800D08EE6174B9846174B99463B
:10301000A4E640468CF01CF8002800D166E74B4639
:1030200020481C605C609C601C618EF023F8404668
:103030008CF02AF85AE728008CF00AF8114B9A46CF
:10304000002800D1E6E65A4628001A705A609A60B5
:103050008CF01AF8DEE6C046B44C00209024012023
:10306000A84C002070240120B04C00207C240120BA
:103070002CDB091000DE09104C050000C8DE091029
:10308000BC4C0020B8250120190A000060CF0910AF
:1030900008D109101CE1091090DF0910FFFF0100A1
:1030A000912C0010792C001040468BF0D1FF084B7A
:1030B0009946002800D14DE61D605D609D601D6150
:1030C00004488DF0D7FF40468BF0DEFF42E6C04655
:1030D0007C240120792C001070B50500041D20000F
:1030E00001F0F6FF200002F003F828680028F6D06F
:1030F0000368DB689847F2E730B5174A91B0136868
:1031000001331360012B08D10122144B52421A6083
:1031100000225A609A60DA601A61114A136801331A
:103120001360012B01D011B030BD40220D4968461B
:1031300070F056FD00230C4C402023606360A360B8
:1031400070F054FD05004022403569462060A560BE
:1031500070F046FD6560E6E7984C0020804C00204A
:10316000944C00208C260910C87001207047C0467E
:10317000807970477047C046C079704710B5040029
:10318000082170F043FD200010BDC04610B50400BA
:10319000082170F03BFD200010BDC046F0B5C646CA
:1031A000194B00B59846C0CBBE421AD07468B568BA
:1031B000AC420AD0A368002B1ED0210020000322BD
:1031C00010349847A542F5D17568002D18D0F368E2
:1031D0002800591B103670F019FDB742E6D143465E
:1031E0001F68002F05D0434699683800C91B70F04E
:1031F0000DFD80BCB846F0BD1034A542DAD1E3E73E
:103200001036B742D2D1EAE75024012010B56BF056
:103210008FFE002905D0FA22002392006EF026F9D5
:1032200010BDFA2189006EF0E3F8F9E710B56BF0F4
:103230007FFE10BDF8B50025002604002827058074
:10324000856086700671404B40484149414AE060C4
:1032500021616261A361E36123626362E6552063D9
:10326000E36323646364A36420004C23E562616329
:10327000A2630021E552102225656565A565E56517
:1032800025666566A566E566703070F0A3FC802350
:10329000E5500433E5500433E5500433E55004337E
:1032A000E5500433E5500433E5500433E55004336E
:1032B000E5500433E5500433E5500433E55004335E
:1032C000E5500433E5500433E55023000122BA33BE
:1032D0009E70C4231700204D5B00E6542B78BFF38B
:1032E0005B8F1F401A4215D00122C62317001B4EC8
:1032F0005B00E6502B78BFF35B8F1F401A4216D05D
:10330000CA23174A5B00E25000228533FF332000B6
:10331000E254F8BD28008BF09BFE0028E4D0114B4E
:1033200028001E705F609F608BF0AEFEDCE7280017
:103330008BF08EFE0028E3D0503E28003770776077
:10334000B7608BF0A1FEDBE700FEFF460000FF7FC9
:10335000FF7FFF7FFF7F0000BC4C0020082601207C
:10336000E0260120B8250120F0B501224E46454651
:10337000DE465746E0B51600EE4D04002B7883B0CC
:10338000BFF35B8F1E401A4201D100F05BFC0820A6
:1033900070F02CFC012300259A464360BF33056082
:1033A000E050082070F022FC022399464360C233AB
:1033B0000560E050082070F019FC04239846436033
:1033C000C4330560E050082070F010FC0827CC23BF
:1033D0000560E0504760082070F008FC53464360E9
:1033E000CF330560E050082070F000FC4B4643608E
:1033F000D2330560E050082070F0F8FB434643608C
:10340000D4330560E050082070F0F0FBDC23056049
:10341000E0504760082070F0E9FB10234360D03390
:103420000560E050082070F0E1FB20234360C433C6
:103430000560E050082070F0D9FB4026E8230560C5
:103440004660E050082070F0D1FB802343606C336D
:103450000560E050082070F0C9FB80235B009B46AC
:103460004360103B0560E050082070F0BFFB8023F4
:103470009B0043600D3BFF3B0560E050082070F06F
:10348000B5FB8023DB004360F8230560E050082093
:1034900070F0ACFB80231B014360FC230560E0500F
:1034A000082070F0A3FB80235B0143605B4605604E
:1034B000E050082070F09AFB80239B014360822338
:1034C0005B000560E050082070F090FB8023DB017A
:1034D000436084235B000560E050082070F086FBA9
:1034E00080231B0243609B4686235B000560E050FF
:1034F000082070F07BFB80235B03436088235B0024
:103500000560E050082070F071FB80239B0343604E
:103510008A235B000560E050082070F067FB802381
:10352000DB0343608C235B000560E050082070F0F3
:103530005DFB80231B0443608E235B000560E0502D
:10354000082070F053FB80235B04436090235B00F2
:103550000560E050082070F049FB80239B04436025
:1035600092235B000560E050082070F03FFB802351
:10357000DB04436094235B000560E050082070F09A
:1035800035FB80231B05436096235B000560E050FC
:10359000082070F02BFB80235B05436098235B00C1
:1035A0000560E050082070F021FB80239B054360FC
:1035B0009A235B000560E050082070F017FB802321
:1035C000DB0543609C235B000560E050082070F041
:1035D0000DFB80231B0643609E235B000560E050CB
:1035E000082070F003FB5B464360A0235B0005608E
:1035F000E050082070F0FAFA182343602D33FF33AF
:103600000560E050082070F0F1FA19234360303370
:10361000FF330560E050082070F0E8FA1A23436099
:103620003333FF330560E050082070F0DFFA534673
:1036300043605033FF330560E050082070F0D6FA45
:103640004B4643605333FF330560E050082070F071
:10365000CDFA434643605533FF330560E050082000
:1036600070F0C4FAAE235B000560E05047600820AC
:1036700070F0BCFA3B2343602633FF330560E05013
:10368000082070F0B3FA3C2343602933FF33056010
:10369000E050082070F0AAFA3D2343602C33FF333A
:1036A0000560E050082070F0A1FA3E2343602F33FC
:1036B000FF330560E050082070F098FA3F23436024
:1036C0003233FF330560E0500820984670F08EFAE0
:1036D000BA235B0005604660E050082070F086FA6F
:1036E000412343603833FF330560E050082070F019
:1036F0007DFA422343603B33FF330560E0500820EE
:1037000070F074FA472343603A33FF330560E050AA
:1037100084460F208146084D0022A94448460023D4
:103720000121064E0190A85C472814D8800030582B
:103730008746C046BC4C002099620120CC26091067
:10374000BE2040002058814608004F4698403F6800
:1037500038434F463860013314321E2BE3D1220028
:103760007733FF33E3589932191DFF3261C961C2C3
:1037700061C961C2043161C961C261C961C20431F8
:1037800061C961C261C961C2043161C961C261C9F3
:1037900061C2043161C961C261C961C284229200FF
:1037A000A218043161C961C261C961C28A22920052
:1037B000A218043161C961C261C961C2902292003C
:1037C000A218043161C961C261C961C29622920026
:1037D000A218043161C961C261C961C29C22591C2D
:1037E0009200A218FF3161C961C261C961C2A222FF
:1037F0009200A218043161C961C261C961C2A822E4
:103800009200A218043161C961C261C961C2AE22CD
:103810009200A218043161C961C261C961C2B422B7
:103820009200A218043161C961C261C961C2BA22A1
:103830009200A218043161C961C261C961C2C0228B
:1038400092009446A9336444FF3307CB07C407CBE7
:1038500007C403B0F0BCBB46B246A946A046F0BDC3
:103860000800674698403F68013338436746143282
:1038700038601E2B00D056E771E7BC20400061E79E
:10388000BA2040005EE740465CE7B620400059E7BA
:10389000B420400056E7B220400053E7B02040007B
:1038A00050E7AE2040004DE7AC2040004AE7AA2098
:1038B000400047E7A820400044E79E20400041E741
:1038C0009C2040003EE79A2040003BE798204000C3
:1038D00038E79620400035E79420400032E79220F8
:1038E00040002FE7902040002CE78E20400029E781
:1038F0008C20400026E78A20400023E788204000F3
:1039000020E7862040001DE7842040001AE7D548C4
:10391000C0278058E75981460198BA4680587F6889
:1039200000904846074208D00800574698403F6834
:103930003843834650465F460760C4204F462058B0
:1039400082464068384208D00800574698403F6891
:103950003843834650465F460760C8204F4620588C
:1039600082464068384208D00800574698403F6871
:103970003843834650465F460760CC204F46205868
:1039800082464068384208D00800574698403F6851
:103990003843834650465F460760D0202058009F3A
:1039A00082464068384208D00800574698403F6831
:1039B0003843834650465F460760D4202058009F16
:1039C00082464068384208D00800574698403F6811
:1039D0003843834650465F460760D8202058009FF2
:1039E00082464068384208D00800574698403F68F1
:1039F0003843834650465F460760DC202058009FCE
:103A000082464068384208D00800574698403F68D0
:103A10003843834650465F460760E0202058009FA9
:103A200082464068384208D00800574698403F68B0
:103A30003843834650465F460760E4202058009F85
:103A400082464068384208D00800574698403F6890
:103A50003843834650465F460760E8202058009F61
:103A600082464068384208D00800574698403F6870
:103A70003843834650465F460760EC202058009F3D
:103A800082464068384208D00800574698403F6850
:103A90003843834650465F460760F0202058009F19
:103AA00082464068384208D00800574698403F6830
:103AB0003843834650465F460760F4202058009FF5
:103AC00082464068384208D00800574698403F6810
:103AD0003843834650465F460760F8202058009FD1
:103AE00082464068384208D00800574698403F68F0
:103AF0003843834650465F460760FC202058009FAD
:103B000082464068384208D00800574698403F68CF
:103B10003843834650465F46076080204000205867
:103B2000009F82464068384208D0080057469840B7
:103B30003F683843834650465F4607608220400016
:103B40002058009F82464068384206D008005746F9
:103B500098403F68384357463860A82040002058B6
:103B6000834647684846074206D008005F469840AB
:103B70003F6838435F463860AA204000205883469B
:103B800047684846074206D008005F4698403F68AD
:103B900038435F463860AC20400020588346476871
:103BA0004846074206D008005F4698403F683843C1
:103BB0005F463860AE20400020588246476848463D
:103BC000074200D1C7E50800574698403F680133D7
:103BD00038435746143238601E2B00D0A3E5BEE5AB
:103BE000A6204000AEE5A4204000ABE5A2204000A6
:103BF000A8E5A0204000A5E5FC20A3E5F820A1E56C
:103C0000822040009EE5802040009BE5F42099E55D
:103C1000F02097E5EC2095E5E82093E5E42091E598
:103C2000E0208FE5DC208DE5D8208BE5D42089E5E8
:103C3000D02087E5CC2085E5C82083E5C42081E538
:103C4000C0207FE528008BF003FA002801D1FFF7A0
:103C50009EFB054B28001E705E609E608BF014FA80
:103C6000FFF795FBA0620120B8250120C02310B505
:103C70000400C058002802D008216FF0C7FFC423F9
:103C8000E058002802D008216FF0C0FFC823E05898
:103C9000002802D008216FF0B9FFCC23E05800289B
:103CA00002D008216FF0B2FFD023E058002802D0E4
:103CB00008216FF0ABFFD423E058002802D0082180
:103CC0006FF0A4FFD823E058002802D008216FF03D
:103CD0009DFFDC23E058002802D008216FF096FFFA
:103CE000E023E058002802D008216FF08FFFE42382
:103CF000E058002802D008216FF088FFE823E05840
:103D0000002802D008216FF081FFEC23E058002842
:103D100002D008216FF07AFFF023E058002802D08B
:103D200008216FF073FFF423E058002802D0082127
:103D30006FF06CFFF823E058002802D008216FF0E4
:103D400065FFFC23E058002802D008216FF05EFFD9
:103D500080235B00E058002802D008216FF056FF56
:103D600082235B00E058002802D008216FF04EFF4C
:103D700084235B00E058002802D008216FF046FF42
:103D800086235B00E058002802D008216FF03EFF38
:103D900088235B00E058002802D008216FF036FF2E
:103DA0008A235B00E058002802D008216FF02EFF24
:103DB0008C235B00E058002802D008216FF026FF1A
:103DC0008E235B00E058002802D008216FF01EFF10
:103DD00090235B00E058002802D008216FF016FF06
:103DE00092235B00E058002802D008216FF00EFFFC
:103DF00094235B00E058002802D008216FF006FFF2
:103E000096235B00E058002802D008216FF0FEFEE8
:103E100098235B00E058002802D008216FF0F6FEDE
:103E20009A235B00E058002802D008216FF0EEFED4
:103E30009C235B00E058002802D008216FF0E6FECA
:103E40009E235B00E058002802D008216FF0DEFEC0
:103E5000A0235B00E058002802D008216FF0D6FEB6
:103E6000A2235B00E058002802D008216FF0CEFEAC
:103E7000A4235B00E058002802D008216FF0C6FEA2
:103E8000A6235B00E058002802D008216FF0BEFE98
:103E9000A8235B00E058002802D008216FF0B6FE8E
:103EA000AA235B00E058002802D008216FF0AEFE84
:103EB000AC235B00E058002802D008216FF0A6FE7A
:103EC000AE235B00E058002802D008216FF09EFE70
:103ED000B0235B00E058002802D008216FF096FE66
:103EE000B2235B00E058002802D008216FF08EFE5C
:103EF000B4235B00E058002802D008216FF086FE52
:103F0000B6235B00E058002802D008216FF07EFE47
:103F1000B8235B00E058002802D008216FF076FE3D
:103F2000BA235B00E058002802D008216FF06EFE33
:103F3000BC235B00E058002802D008216FF066FE29
:103F4000BE235B00E058002802D008216FF05EFE1F
:103F5000C0235B00E058002802D008216FF056FE15
:103F60002000FFF701FA10BDF8B5C6235B00C35867
:103F70000400DA79002A4DD100795A7A002A18D043
:103F8000C022A25805005768C422A258FEB2526847
:103F90001100014030008C462900D2B21043814309
:103FA000C8B22F4201D01043C0B262462071002A2D
:103FB0002CD19222FF32D97BA25C914204D000F036
:103FC000B9FFC6235B00E3580F21C82201402171CD
:103FD0005200A25C0509EDB2002A01D129432171EA
:103FE0005879042833D000F0B7FFC82320715B0054
:103FF000E35C012B3BD0022B07D100F0A9FE6082CD
:10400000207900F0E1FE2571A082F8BD3043C0B2F6
:104010002071CEE7C822825805795668CC22825892
:10402000F1B25268080017002F40BC462F00D2B2F0
:104030001043874338002E4201D01043C0B262467D
:104040002071002A99D00843C0B2207195E75B78AF
:10405000072BC8D89622DA40D307C4D5033800F01E
:104060007BFFC82320715B00E35C012BC3D100F010
:104070006FFEE081207900F0A7FE25712082C4E761
:104080000122F8B51700C04D04002B78BFF35B8FF9
:104090001F401A4200D1D1E1BC4E30001DF048F95A
:1040A000C223BB4E5B00C5583378BFF35B8FDB0781
:1040B00000D4B9E1B74F3B68002B00D1B2E13378AF
:1040C000BFF35B8FDB0700D4C6E1386803681B6B66
:1040D0009847A0235B00E25800231168294200D0D2
:1040E0009388A381C023E25800231168294200D09D
:1040F0001379C422A2581168294201D012791343BE
:10410000C822A2581168294201D012791343CC2247
:10411000A2581168294201D012791343A8225200F3
:10412000A2581168294203D0526812011343DBB22E
:10413000AA225200A2581168294203D052681201E3
:104140001343DBB2AC225200A2581168294203D0BB
:10415000526812011343DBB2AE225200A25811681A
:10416000294203D0526812011343DBB22371D023DA
:10417000E1580A6813002B402A4200D04B68D42231
:10418000A2581168294201D052681343D822A2587C
:104190001168294201D052681343DC22A2581168E9
:1041A000294201D052681343E022A25811682942E3
:1041B00001D052681343E422A2581168294201D069
:1041C00052681343E822A2581168294201D052686C
:1041D0001343EC22A2581168294201D052681343BC
:1041E000F022A2581168294201D052681343F422E8
:1041F000A2581168294201D052681343F822A258EC
:104200001168294201D052681343FC22A258116858
:10421000294201D05268134380225200A2581168EB
:10422000294201D05268134382225200A2581168D9
:10423000294201D05268134384225200A2581168C7
:10424000294201D05268134386225200A2581168B5
:10425000294201D05268134388225200A2581168A3
:10426000294201D0526813438A225200A258116891
:10427000294201D0526813438C225200A25811687F
:10428000294201D0526813438E225200A25811686D
:10429000294201D05268134390225200A25811685B
:1042A000294201D05268134392225200A258116849
:1042B000294201D05268134394225200A258116837
:1042C000294201D05268134396225200A258116825
:1042D000294201D05268134398225200A258116813
:1042E000294201D0526813439A225200A258116801
:1042F000294201D0526813439C225200A2581168EF
:10430000294201D0526813439E225200A2581168DC
:10431000294201D052681343A360A2235B00E358F3
:104320001B682B4238D0C82300225B00E254C02314
:104330005B00E3581B682B405A1E93419222FF32C8
:10434000A354B0235B00E3581B682B424DD00023DD
:10435000E381B4235B00E3581B682B423BD000236E
:104360002382B8235B00E3581B682B4229D000232B
:104370006382BC235B00E3581B682B4217D00023E9
:10438000A3820023E382F8BDBC4C0020B8250120A5
:10439000A84C002070240120A4235B00E3581B6874
:1043A0002B4234D0C82301225B00E254BFE7BE2376
:1043B0005B00E3581B682B4227D001235B42A3829A
:1043C000DFE7BA235B00E3581B682B421BD00123B5
:1043D0005B426382CDE7B6235B00E3581B682B4248
:1043E0000FD001235B422382BBE7B2235B00E3587B
:1043F0001B682B4203D001235B42E381A9E7E081E4
:10440000A7E72082ADE76082B3E7A082B9E7A623E1
:104410005B00E3581B682B4228D0C82302225B00B4
:10442000E25484E7154854E630008AF011FE002873
:1044300000D13FE630008AF027FE3BE628008AF0F4
:1044400007FE0F4E002800D127E62800377077605E
:10445000B7608AF019FE20E630008AF0F9FD0028E6
:1044600000D132E630008AF00FFE2EE6C6235B0054
:10447000E358DA78C8235B00E25458E7FF7F000076
:10448000B8250120F0B5C64605000C0000B532295C
:1044900032D8D64A8B00D3589F46C6239B00C35CB4
:1044A0002A2B29D001221100D14F3B78BFF35B8F1B
:1044B000194088461A4200D1B2E2CE4E30001CF0BC
:1044C00065FEC42301225B00EA5401221100CA4F99
:1044D0003B78BFF35B8F194088461A4200D18DE2CA
:1044E000C64E08206FF082FBC54B01000360C54B30
:1044F0004360300016F0B4F9C6239B00EC5480BC36
:10450000B846F0BD802382689B0113438360F3E7C4
:10451000802382685B0113438360EDE78023826818
:104520009B0013438360E7E7802382685B001343AB
:104530008360E1E70222037913430371DCE7012280
:10454000037913430371D7E7802382681B02134367
:104550008360D1E780238268DB0113438360CBE76C
:104560008023826813438360C6E740238268134335
:104570008360C1E72023826813438360BCE7102374
:10458000826813438360B7E708238268134383601C
:10459000B2E70423826813438360ADE70223826895
:1045A00013438360A8E70123826813438360A3E772
:1045B000C6239B00C35C162B9ED000201CF044FF3A
:1045C0009AE7802382681B011343836094E7C62324
:1045D0009B00C35C2D2B00D18EE701221100864F7A
:1045E0003B78BFF35B8F194088461A4200D18FE2B7
:1045F000824E08206FF0FAFA834B01000360922389
:10460000DB018B800E2330008B7116F029F973E7E4
:10461000C6239B00C35C2C2B00D16DE70122110047
:10462000754F3B78BFF35B8F194088461A4200D123
:1046300005E2724E08206FF0D9FA734B0100036057
:104640009023DDE7C6239B00C35C2B2B00D153E7EF
:1046500001221100664F3B78BFF35B8F19408846FB
:104660001A4200D1FDE1634E012130001CF044FCF0
:1046700042E708220379134303713DE704220379DB
:104680001343037138E7C6239B00C35C322B00D170
:1046900032E701221100584F3B78BFF35B8F19407E
:1046A00088461A4200D145E2544E08206FF09EFA27
:1046B000554B010003609C23A2E7C6239B00C35C0B
:1046C000032B00D118E7C62302225B00C358DA701F
:1046D000FBE6C6239B00C35C312B00D10CE7012213
:1046E0001100454F3B78BFF35B8F194088461A4253
:1046F00000D1C5E1414E08206FF078FA424B01002D
:1047000003609A237CE7C6239B00C35C302B00D157
:10471000F2E601221100384F3B78BFF35B8F19405E
:1047200088461A4200D1CFE1344E08206FF05EFA7D
:10473000354B01000360982362E7C6239B00C35CEE
:104740002E2B00D1D8E6012211002B4F3B78BFF36E
:104750005B8F194088461A4200D1A3E1274E0820FA
:104760006FF044FA284B01000360942348E7C62306
:104770009B00C35C2F2B00D1BEE6012211001E4F0F
:104780003B78BFF35B8F194088461A4200D1ADE1F8
:104790001A4E08206FF02AFA1B4B01000360962383
:1047A0002EE7C6239B00C35C022B00D1A4E6C623E0
:1047B00001225B00C358DA7087E6C6239B00C35C06
:1047C000012B00D198E6C62300225B00C358DA70A3
:1047D0007BE6C6239B00C35C072B00D18CE6C62377
:1047E00001225B00C3585A716FE6C046EC270910DE
:1047F000BC4C0020B8250120A44C002050240120EE
:10480000D42809100001000CC0280910C6239B0001
:10481000C35C062B00D16FE6C62300225B00C358A1
:104820005A7152E680238268DB001343836063E69B
:10483000C6239B00C35C122B00D15DE60122110050
:10484000DC4F3B78BFF35B8F194088461A4200D19A
:10485000A0E1D94E042130001CF0D8FB002800D183
:104860004AE6C42301225B00EA542EE6C6239B00DD
:10487000C35C112B00D13FE601221100CD4F3B78E4
:10488000BFF35B8F194088461A4200D164E1CA4EDB
:10489000032130001CF0BAFB0028E2D12CE6C6232D
:1048A0009B00C35C102B00D126E601221100C14FF2
:1048B0003B78BFF35B8F194088461A4200D15AE11A
:1048C000BD4E022130001CF0A1FB0028C9D113E627
:1048D000C6239B00C35C0F2B00D10DE60122110003
:1048E000B44F3B78BFF35B8F194088461A4200D122
:1048F0006AE1B14E012130001CF088FB002800D194
:10490000FAE5AEE7C6239B00C35C0E2B00D1F3E5AE
:1049100001221100A74F3B78BFF35B8F19408846F7
:104920001A4200D15FE1A44E0121A44AB35C4B407E
:10493000B354CAE5C6239B00C35C0A2B00D1DBE558
:10494000C62301215B00C258537A4B405372BCE529
:10495000C6239B00C35C0C2B00D1CDE5C6230422EB
:104960005B00C3585A71B0E5C6239B00C35C0B2B98
:1049700000D1C1E5C62303225B00C3585A71A4E5E8
:10498000C6239B00C35C0D2B00D1B5E5C6230121D6
:104990005B00C258D37B4B40D37396E5C6239B0084
:1049A000C35C082B00D1A7E5C62302225B00C358D5
:1049B0005A718AE5C6239B00C35C232B00D19BE57B
:1049C000012211007B4F3B78BFF35B8F1940884673
:1049D0001A4200D116E1784E30001CF071FB40E71E
:1049E000C6239B00C35C092B00D185E5C6230121AA
:1049F0005B00C258D3794B40D37166E538008AF02A
:104A000027FB6F4E002800D16BE543466D483360AD
:104A10007360B3608CF02EFB38008AF035FB60E5E4
:104A200038008AF015FB644E002800D146E5434665
:104A3000380033707360B3608AF026FB3EE53800BF
:104A40008AF006FB5E4E002800D1F3E543465D4840
:104A500033607360B3608CF00DFB38008AF014FB98
:104A6000E8E538008AF0F4FA534E002800D1FBE55F
:104A70004346380033707360B3608AF005FBF3E59A
:104A800038008AF0E5FA4E4E002800D133E643465E
:104A90004C4833607360B3608CF0ECFA38008AF0F5
:104AA000F3FA28E638008AF0D3FA454E002800D100
:104AB00055E64346434833607360B3608CF0DAFADE
:104AC00038008AF0E1FA4AE638008AF0C1FA3C4E32
:104AD000002800D129E643463A4833607360B3604A
:104AE0008CF0C8FA38008AF0CFFA1EE638008AF057
:104AF000AFFA334E002800D14BE6434631483360CD
:104B00007360B3608CF0B6FA38008AF0BDFA40E604
:104B100038008AF09DFA2A4E002800D169E5434604
:104B2000284833607360B3608CF0A4FA38008AF0D0
:104B3000ABFA5EE538008AF08BFA214E002800D1EE
:104B4000B3E543461F4833607360B3608CF092FA5C
:104B500038008AF099FAA8E538008AF079FA164EFA
:104B6000002800D194E64346380033707360B36088
:104B70008AF08AFA8CE638008AF06AFA0E4E00282B
:104B800000D19EE64346380033707360B3608AF00C
:104B90007BFA96E638008AF05BFA074E002800D1CF
:104BA00058E64346380033707360B3608AF06CFA9D
:104BB00050E6C046BC4C0020B8250120C90D0000BD
:104BC000502401209D31001038008AF041FA154E22
:104BD000002800D18EE64346380033707360B3601E
:104BE0008AF052FA86E638008AF032FA0D4E002832
:104BF00000D199E64346380033707360B3608AF0A1
:104C000043FA91E638008AF023FA064E002800D1D4
:104C1000E2E64346380033707360B3608AF034FADA
:104C2000DAE6C046B8250120F8B54546DE465746C7
:104C30004E46C623E0B55B00C35805005B7B984633
:104C4000002B35D10400C7239D349B00FF34C618C8
:104C500002E01834A64224D061790029F9D0A36873
:104C6000AA681800924610409842F2D12A79237817
:104C700093461A409342ECD1228A91464F46AA8924
:104C80003A409145E5D152465F4682439F43280012
:104C9000AA602F71FFF7F6FB012318349846A6424D
:104CA000DAD14346002B03D1C62342469B00EA5487
:104CB000F0BCBB46B246A946A046F8BD30B5174A7F
:104CC00091B0136801331360012B08D10122144BFA
:104CD00052421A6000225A609A60DA601A61114AE0
:104CE000136801331360012B01D011B030BD402295
:104CF0000D4968466EF074FF00230C4C4020236081
:104D00006360A3606EF072FF050040224035694683
:104D10002060A5606EF064FF6560E6E7984C0020B7
:104D2000804C0020944C0020E0280910C87001201D
:104D300070B5064D2C68AC4206D0200024680C21CA
:104D40006EF064FFAC42F8D170BDC0462C16012055
:104D50000C2370B51840042817D0082813D0164C1F
:104D60002378BFF35B8FDB0711D5144D2B68002B25
:104D70001FD02378BFF35B8FDB0711D5286803684A
:104D80001B6B984700E00E4870BD0020FCE7200038
:104D90008AF05EF90028E8D020008AF075F9E4E78F
:104DA00020008AF055F90028E8D020008AF06CF93C
:104DB000E4E70448E8E7C046A84C0020702401203E
:104DC000FFFF0000FF7F0000032370B5184001289B
:104DD00017D0022813D0164C2378BFF35B8FDB0764
:104DE00011D5144D2B68002B1FD02378BFF35B8F98
:104DF000DB0711D5286803681B6B984700E00E4855
:104E000070BD0020FCE720008AF022F90028E8D0DD
:104E100020008AF039F9E4E720008AF019F9002827
:104E2000E8D020008AF030F9E4E70448E8E7C0461B
:104E3000A84C002070240120FFFF0000FF7F00002D
:104E4000024B1B18013B18787047C04620290910F7
:104E50000122F8B54746CE460E00110080B5304F0E
:104E600004003B78BFF35B8F194088461A4238D064
:104E70002C4D2D4FBB19013B1B7823420FD02B4CDF
:104E8000A35D002B3ED02C68AC4228D06B681B7A07
:104E9000FF18013F3878C0BCB946B046F8BD234B77
:104EA00099469B5D002BEED02C68AC4212D0A046F8
:104EB00043461B7A2468B34209D1AB684046013BA4
:104EC000AB608AF0CDF90C2140466EF09FFEAC42FB
:104ED000EDD1246800234A469355AC42D6D1002038
:104EE000D9E738008AF0B4F80E4D0028C1D0434607
:104EF0006D602D60AB600E488CF0BCF838008AF015
:104F0000C3F8B6E70C206EF071FE290006728AF035
:104F10009FF9AB680133AB600123A355B3E7C046EB
:104F20009C4C00202C160120202909102416012059
:104F3000314D001010B504000121FFF789FF022157
:104F40002000FFF785FF03212000FFF781FF0421E8
:104F50002000FFF77DFF10BD30B504000800042CD1
:104F600019D003230B40022B2DD0032B34D0012B5F
:104F700041D00022454B08201A70042500230C2242
:104F80000A40082A1BD00C2A0CD0042A05D0002184
:104F900018003F4A117030BD052503223C4B1A70A2
:104FA0002800F8E7022C47D0032C61D1384A117849
:104FB000002959D1180000231370ECE709200422BE
:104FC000334B1A70E7E7314A0A2013700C2206258A
:104FD0000A40082AD7D1F2E7002C15D101220C2172
:104FE0002A4B08401A700828E8D00C2843D004281F
:104FF000D2D00123CBE7254A092013700C220525C6
:105000000A40082ABFD1DAE7204A022C06D0032C36
:105010001AD00023082004251370B0E71378002B62
:10502000F7D0012B2AD00920052501230C220A40A4
:10503000082AC4D00C2AA8D1154A11780029B9D061
:105040000329A8D02800A6E71378002BE1D0012B74
:1050500018D00A20062502230C220A40082AAED0C6
:105060000C2A00D091E7A1E7032900D093E797E746
:105070001800074A9FE70120054A9CE702230A20FF
:105080000625D3E709200525E6E7C046B517022027
:10509000B417022040687047044B10B51868002808
:1050A00003D09968091A6EF0B1FD10BD7C2401206F
:1050B00070B54368046805009C4207D008CC1868A6
:1050C00003681B6A98476B68A342F7D170BDC0465E
:1050D00070B54368046805009C4207D008CC186886
:1050E00003685B6998476B68A342F7D170BDC046FF
:1050F00070B54368046805009C4207D008CC186866
:1051000003681B6998476B68A342F7D170BDC0461E
:1051100070B54368046805000E009C4208D008CCB6
:105120003100186803689B6998476B68A342F6D101
:1051300070BDC046F8B5574645464E46DE46036844
:10514000E0B547689246344A9946FB1A05008846FE
:105150009B1093425CD00126002B02D05E00B3422C
:1051600050D843464A469C1A002E1BD100239B462A
:1051700052465B4612681A51002C23DC4346043425
:105180005C44FF1A002F30DC4B46E719002B35D169
:105190005B466F60AE602B60F0BCBB46B246A94672
:1051A000A046F8BD80239B059E422FD2B60030005A
:1051B0006EF01CFD834652465B4612685E441A51EF
:1051C000002CDBDD2200494658468DF05DF8434651
:1051D00004345C44FF1A002F07DC4A46AB68E71929
:1051E000991A48466EF012FDD2E73A004146200077
:1051F0006EF0F6FC4B46E719002BC9D04A46AB6867
:10520000991AEEE74A46054E8C1AD0E7024ECDE7D2
:1052100003488AF05DF9C046FFFFFF1FFCFFFF7FD8
:105220002429091070B50B6806009B68080082B03D
:105230000C009847051E06D1236820005B6898473C
:10524000280002B070BD08206EF0D0FC23680190E9
:10525000DB6820009847019B7168B2681C6091422E
:1052600002D008C17160EBE7300001AAFFF762FFCE
:10527000E6E7C046F0B5C64600B50B6806009B6879
:10528000080082B00C009847051E08D12368200052
:105290005B689847280002B080BCB846F0BD082083
:1052A0006EF0A4FC23680190DB6820009847019B06
:1052B0007168B2681C6091422CD008C171600122F3
:1052C0001100174E3378BFF35B8F194088461A429E
:1052D0000AD0144F2368144A5B6A934216D161685E
:1052E00038001CF041FBD5E7300089F0B1FE0D4FCE
:1052F0000028EFD043460D483B607B60BB603B61BC
:105300008BF0B8FE300089F0BFFEE3E7200098473D
:105310000100E5E7300001AAFFF70CFFCFE7C04628
:10532000B04C00207C2401209550001099500010B2
:10533000F0B54746CE4680B585B0039301910B0C7E
:10534000029298460D0A037EEDB20400AB4200D0F3
:1053500098E0BA4B61695A6A006991426DD89B6ABC
:10536000834200D2B2E01923270099461D37A14499
:105370006B460422390048461E796EF031FC012349
:105380001A003240627772081A40A277B2081A40B7
:10539000E2772022F6081E40A654052D00D1C5E074
:1053A00050D8032D00D1D7E0042D21D1637E002BEE
:1053B00000D010E1A37E002B00D023E1E37E002B80
:1053C00000D01FE1237F002B00D01BE169F0B0FD6E
:1053D000FA2206000F0000234046002192006EF0E2
:1053E000E9F936184F41002F00DACCE026616761F9
:1053F000637F002B68D02123E35C5B43DB439BB2DC
:10540000A380A37F002B5DD02123E35C5B43DB43C0
:105410009BB2E380E37F002B52D02123E35C5B430C
:10542000DB439BB223812023E35C002B45D0212367
:10543000E35C5B43DB439BB2638105B0C0BCB94610
:10544000B046F0BD062DD3D1029A039D617E002A9D
:1054500040D1002900D0B9E06377A37E002B00D0B3
:10546000CDE00133A377E37E002B00D0C4E001330D
:10547000E377237F002B00D1BAE020230022002510
:10548000E25440E019239946270081440422002178
:1054900048461D376EF09EFB0422002138006EF056
:1054A00099FB69F045FD2123FF2220616161E254EF
:1054B00000220133E25425765AE7614B6381BCE751
:1054C0005F4BAFE75E4BA4E75D4B99E7914200D09D
:1054D00049E7B2E7002D63D1002901D015006377B9
:1054E000A37E002B02D001231500A377E37E002BBF
:1054F00002D001231500E377237F002B03D0202364
:1055000001211500E15469F013FDFA2206000F0095
:1055100000232800002192006EF04CF98019794197
:10552000002916DA01204749404212E02221625C3C
:10553000002A2CD02122A35C0533DBB2A354FF2B1D
:1055400046D069F0F5FC00233F4A801859410029F4
:10555000E8DB206161614BE7637E002B01D0002313
:105560006377A37E002B01D00023A377E37E002B7B
:1055700001D00023E377237F002B00D126E72023EF
:105580000022E25422E701262E4F76422EE7212008
:10559000225C053AD2B22254002AD2D16354D0E719
:1055A000002900D000236377A37E002B3ED1013376
:1055B000A377E37E002B36D10133E377237F002BE3
:1055C00016D0202300211500E1549CE7627744E7C0
:1055D00000236354B5E70422002138006EF0FAFA84
:1055E0000023032201331340E318023A5A77EDE611
:1055F00020230122E25486E70023E37739E70023E2
:10560000A37730E70422002138006EF0E3FAA37E8E
:10561000002B10D1E37E002B0BD1237F002B00D178
:10562000D4E60323DDE70023E377C7E70023A3776E
:10563000BFE70223D5E70123D3E7C046004005407A
:10564000FFFF0000FFFFFF7F204E0000F0B5574630
:105650004546DE464E469246274AE0B593468A26A0
:105660008C221F00431E5A434E43B5185D446B897C
:105670000400904685B0BB4209D2002399464846B3
:1056800005B0F0BCBB46B246A946A046F0BD6EF0E0
:1056900039FE2979814603002000002B28D06FF0C5
:1056A0008BFF297981460029E7D00028E5D1200029
:1056B0006FF0D6FE03900028DFD04C3646445E449F
:1056C0003A00514630006EF08BFA4B462979320091
:1056D0000193009320003B006FF00AFF81460028F1
:1056E000CDD1200029796FF0DFFE039B9946C6E7F4
:1056F0006FF062FFC3E7C046005100208C2210B556
:105700000021034892006EF065FA012010BDC046EA
:1057100000510020F0B50500C6468C246A1E00B575
:105720005443204E82B03419E778C8098F4235D0EF
:105730002479611A4C1EA1414942C9B20F000128C7
:1057400012D0194800280AD08C208A2442437C4376
:105750004C32121928009BB2B2181CF013FC012025
:1057600002B080BCB846F0BD8C245443A046200053
:105770008A247C430C300719F7193A0028009BB2A1
:105780001CF0BEFB0022444436193389F17828000E
:10579000019200923A006FF0ABFEE0E70027002193
:1057A000CDE7C04600510020851F0210F0B5C64667
:1057B000050000B504281AD88C26431E5E430D4F01
:1057C000BB1998460C4B002B0CD0BB5D002B09D0AD
:1057D0000024210028001CF063FB0134BB5DE4B20F
:1057E000A342F6D88C22002140466EF0F3F980BC2B
:1057F000B846F0BD00510020A11E0210F0B557467A
:105800004E46DE464546E0B553790F00160085B09A
:10581000FF2B09D0032B07D0002005B0F0BCBB46FE
:10582000B246A946A046F0BD7B1E9B468C235A4635
:105830005A435A4B91461C004C449A46E378002B3D
:10584000EAD12379002BE7D1B3795D2B39D0472BEF
:10585000E2D1F379D02BDFD13379002BDCD0013BBF
:10586000DBB29846350013E022716B7929791B026F
:105870000B435B055B0D2900380063816FF074FEFC
:105880000028C9D04346013BDBB29846FF2B5BD0D2
:105890002B78ED186B78052BBED10223EB56AA7836
:1058A000002BE1DAE2706B7929791B020B435B056F
:1058B0005B0D2900380023816FF056FE0028E1D1EE
:1058C000AAE7F379013B022BA6D83378F5180395A4
:1058D0006B78212BA0D133795A1ED2B29046002B7F
:1058E0000DD11FE02900380023716FF03DFE002824
:1058F00092D04346013BDBB29846FF2B12D02B7867
:10590000ED186B78052B00D086E70222AA56AB78FB
:10591000002AE7DA29003800E3706FF025FE00283E
:10592000E7D179E78C215A465143B37851448B70C3
:1059300001234B71F379012B20D0534652461B783B
:1059400001200133137068E75A468C215143B37824
:1059500051448B7002234B71534652461B780020F2
:10596000013313704A460C320B895244C9780190B6
:10597000009038006FF0BCFD01204EE74A46002041
:10598000039B0C321B7952448B710B89C9780190AF
:10599000009038006FF0ACFDCFE7C046005100200A
:1059A0008C23421E70B55A430B4C0500A3189B78FC
:1059B000591A4B1E99418A234942C9B24B439B183D
:1059C000E418A37962791CF029FA2800A1786FF015
:1059D0006FFF012070BDC0460051002070B5042249
:1059E0000021040000256EF0F5F800230D4AA58083
:1059F000E58025816581A581E58123742000A3547C
:105A000080220021D20054306EF0E4F82000064BD2
:105A10004022E552002111306EF0DCF852232000C4
:105A2000E55270BD560400005404000070B5042215
:105A30000021040000256EF0CDF800230D4AA5805A
:105A4000E58025816581A581E58123742000A3542B
:105A500080220021D20054306EF0BCF82000064BAA
:105A60004022E552002111306EF0B4F85223E55285
:105A700070BDC0465604000054040000F0B5C64690
:105A800004000D0000B5032A64D952270E78C253D2
:105A9000012E57D04B7804227F2B31D800216EF095
:105AA00099F8002600236C4AA680E680268166814C
:105AB000A681E6812374A35454239846A044002170
:105AC000563A40466EF086F82000644B4022E6527B
:105AD000002111306EF07EF8E653042229002000E8
